:10000000000C00201D100000B1130000B913000007
:10001000B9130000B9130000B9130000B9130000B0
:10002000B9130000B9130000B9130000B9130000A0
:10003000B9130000B9130000B9130000B913000090
:10004000B9130000B9130000B9130000B913000080
:10005000B9130000B9130000B9130000B913000070
:10006000B9130000B9130000B9130000B913000060
:10007000B9130000B9130000B91300008512000085
:10008000B9130000051D0000B9130000B9130000EA
:10009000B9130000B9130000B9130000B913000030
:1000A000B9130000B9130000B9130000B913000020
:1000B000B9130000B9130000B9130000B913000010
:10040000FFFFFFFFFFFFFFFFFFFFFFFF7EFBFFFF81
:1004100010B5064C2378002B07D1054B002B02D0DA
:10042000044800E000BF0123237010BD6CFCFF1FD7
:1004300000000000FC1E000008B5084B002B03D094
:100440000748084900E000BF07480368002B03D0B5
:10045000064B002B00D0984708BDC04600000000A6
:10046000FC1E000070FCFF1F6CFCFF1F0000000062
:10047000164B002B00D1144B9D46402292029A1A33
:10048000924600218B460F461348144A121A01F077
:10049000F6FC0F4B002B00D098470E4B002B00D0E2
:1004A00098470020002104000D000D48002802D0CC
:1004B0000C4800E000BF01F0B3FC2000290000F070
:1004C000EBFC01F097FCC04600000800000C002087
:1004D00000000000000000006CFCFF1F0C04002066
:1004E0000000000000000000002941D010B4041CEE
:1004F0004C40A44601230022002900D5494200288F
:1005000000D5404288422CD301242407A14204D2C2
:10051000814202D209011B01F8E7E400A14204D2A2
:10052000814202D249005B00F8E7884201D3401AB9
:100530001A434C08A04202D3001B5C0822438C08DB
:10054000A04202D3001B9C082243CC08A04202D345
:10055000001BDC082243002803D01B0901D0090935
:10056000E3E7101C6446002C00D5404210BC7047E5
:10057000002806D003DB0020C043400801E08020B3
:10058000000607B4024802A14018029003BDC0460D
:10059000190000000029EBD003B5FFF7A7FF0EBC40
:1005A0004243891A1847C0467047C04680B500AF1D
:1005B00072B6024A024B0349D150FEE700E000E068
:1005C0000C0D00000400FA050A4B70B5151C0A4A10
:1005D0000E1CC118041C002091420AD8201C01F0F6
:1005E00039F8301C211C2A1C01F062F8002800D0C8
:1005F0001B2070BD00E0FFFFFF5F000010B58024EE
:10060000A401201C01F026F8002807D18023DB007C
:10061000E41880231B029C42F3D100E01B2010BD94
:10062000024B18694005C00F7047C04640F00F40AC
:1006300037B50023084C0193019DFFF7F1FF013C02
:1006400045190195002CF7D1019BFA2040009842F2
:10065000804140423EBDC046102700000E4A0F4B6D
:10066000C021D058C900014310B5D1500C4B0D4AE0
:1006700059690A405A610C4B0422FF329A620B4BB3
:100680001C68FFF7D5FF631E033303D8012801D18F
:1006900072B6A04710BDC04600700440381000007C
:1006A00040F00F40FFFBFFFF00A0044004200000CB
:1006B00010B5C0438A1891420ED00B7858400823D9
:1006C000012404404008002C01D0044C6040013B50
:1006D000002BF5D10131EEE7C04310BD783BF68227
:1006E000114B70B51968072461430918C9101960C6
:1006F0000E4A0F4B15681E68654374436D186118E8
:10070000ED10C91015601960A84200DA1060884227
:1007100000DD186019681368C9184910411A0548A6
:1007200000F0D4F970BDC04608FCFF1F00FCFF1F9D
:1007300004FCFF1F54FDFF1F08B5024800F0B4F988
:1007400008BDC04654FDFF1F411808788B7800068D
:100750001B02C018CB78C0184B781B04C018704718
:1007600030B50023934205DAC55CCC5CA54203D1C9
:100770000133F7E7012000E0002030BDB34BF7B5AF
:10078000161C1A680C1C3C321A60B14A00215156E2
:10079000002900DD58E18B2C01DD00F08FF9AD4D13
:1007A000AB490122631C2E550A702C1C0C2B00D166
:1007B00096E0882B03D0082B00D042E147E0281CAC
:1007C000A5490322FFF7CCFF002800D139E103251A
:1007D0006557072D37D8A14F3E68002E33D104212D
:1007E000201CFFF7B1FF211C01900831301C802232
:1007F000FFF75EFF019B83421DD1E901A219984BCF
:10080000127ACB189A550136802EF7D1954B0122DA
:100810005A55954AFF201368013313605843934B90
:100820001968C900FFF760FEC0B200F017FB904BDB
:1008300086490B6007E08B4B02225A5501223A6031
:100840008C4B8B4A1A608C4800F038F9F9E0281C70
:100850008A490422FFF784FF00280ED0281C0421B7
:10086000FFF772FF864B984204D1FFF7C7FE7B4B20
:1008700002221A60804800F021F9201C81490422DC
:10088000FFF76EFF002805D0744B1B68002B01D1C9
:10089000FFF78CFE201C7C490422FFF761FF002833
:1008A00000D1CEE0794B00221A606E4900235354E8
:1008B0000132082AF9D1764A00259D540133182BBC
:1008C000F9D1201C0421FFF73FFF684B1860714BE2
:1008D0001D60624B1D60644B1D6000F0C5FAB0E006
:1008E000281C6D490422FFF73BFF00281AD0287905
:1008F0006B79AE7A00021818A979EC792B7A6A7AAA
:10090000ED7A3602AD1980B2ADB2A8421FD109020C
:100910001B026118D31889B29BB2994217D100F01B
:100920007CFA8EE0281C5D490422FFF719FF041EA3
:1009300016D02879AA7A6B79EC7A0002120218187C
:10094000A21880B292B2E9796B7A904202D000F09C
:100950009BFA76E0C9B29942F9D100F0E1F970E072
:10096000281C4F490422FFF7FBFE002869D0281CF1
:100970000421FFF7E9FE0821061C281CFFF7E4FE0E
:10098000374D80220190D200201C291CFFF790FED9
:100990002F1C231C221C3349545C0132611E4C4223
:1009A00061415B18082AF6D12C4C394D082B2CD10B
:1009B000019B984229D12168002926D180229201E9
:1009C000B0188022391CD200FFF7FEFDB60A1B28A2
:1009D0000BD100F059FA2D4B1A6801321A602368C6
:1009E000013323600223AB551BE02A4A136801330D
:1009F00013601E4A12689A4201D1FFF7D7FD012306
:100A0000AB551249274B0B600BE0204BB60A1A6816
:100A100001321A602368013323600223AB5500F0D2
:100A200033FA00220F4900238B540132082AF9D1EE
:100A3000FA180021117001338022D2009342F7D1BD
:100A400001E7034A00231370F7BDC046A8FCFF1F4F
:100A5000BCFCFF1F70FDFF1FAA1E0000B4FCFF1F9F
:100A6000FCFDFF1F88FCFF1FC0FCFF1FB8FCFF1F21
:100A7000204E0000ACFCFF1F54FDFF1FAE1E000007
:100A800039050000B31E0000B81E0000C4FCFF1FA3
:100A900090FCFF1FB0FCFF1FBD1E0000C21E000027
:100AA000C71E000050C300000023036043600722FC
:100AB0000361C36002238260436170470723836040
:100AC0000023036102234361704700004268C8238A
:100AD000013270B55B00041C0E1C42609A4201DDBD
:100AE000022343612368002B73DC002E71DD012A91
:100AF0006DDD01231F2A00DC00236269022A04D075
:100B0000032A13D0012A62D13BE0E2685100FF22A0
:100B10000A40002B00D00132E260E368022B56D17C
:100B20000322A36100236261A36050E0E2685100E8
:100B3000FF220A40002B00D00132E260A268264B5F
:100B40000132134004D50822013B524213430133C2
:100B5000A360002B3BD1A269E368022A02D1991E4F
:100B600001290CD9002B08DD591C8A4205D1012B23
:100B700005D100226361226101E002226261A3616A
:100B800025E0E2685100FF220A40002B00D001322C
:100B9000A568114B0135E2601D4004D50823013DD5
:100BA0005B421D430135A560002D10D1227B201C26
:100BB0002169FFF7E3FD2369013323618B2B01DCFE
:100BC000A56004E00723A36002232561636100237D
:100BD0006360266070BDC04607000080704708B59E
:100BE000002000F053FA08BD13B56C460634201CF3
:100BF00000F062FA094A2088136809499C00605095
:100C0000084901330B4004D54021013B49420B43C5
:100C100001331360FFF764FD13BDC046C8FCFF1F1E
:100C2000FC0200203F00008070470000024B2021A2
:100C30001A680A431A60704740F00F40024B2021A7
:100C40001A688A431A60704740F00F40024B4021F7
:100C50001A680A431A60704740F00F40024B402167
:100C60001A688A431A60704740F00F40024B802197
:100C70001A680A431A60704740F00F40024B802107
:100C80001A688A431A60704740F00F40054B802273
:100C900052005A619A61DA61034BE0215A690A43B2
:100CA0005A61704700A0044040F00F40F7B51B4D5B
:100CB00001932B78171C1033061C00912B70FFF743
:100CC000BDFF3C1C019AE31B93420DDA2378002BF5
:100CD00002D0FFF7D3FF01E0FFF7C8FFFFF7BEFF29
:100CE0000134FFF7B3FFEDE7341C009AA31B9342D6
:100CF00010DA2378002B05D02A789A4202D8FFF721
:100D0000B5FF01E0FFF7BAFFFFF7A8FF0134FFF7D7
:100D10009DFFEAE7FFF78AFFF7BDC046CEFCFF1F45
:100D200008B500F0FDFB08BD044B20211A680A43FA
:100D30001A60C046C046C046C046704700F00F402B
:100D4000054B20211A688A431A60C046C046C04637
:100D5000C046C0467047C04600F00F40044B01211A
:100D60001A680A431A60C046C046C046C04670476B
:100D700040F00F40044B01211A688A431A60C046B4
:100D8000C046C046C046704740F00F40044B80212B
:100D90001A680A431A60C046C046C046C04670473B
:100DA00000F00F40044B80211A688A431A60C04645
:100DB000C046C046C046704700F00F40084A802336
:100DC0005B005361D361074AA0211360064B5A6947
:100DD0000A435A61054B01215A690A435A61704717
:100DE0000090044000A0044000F00F4040F00F408D
:100DF00038B5051C0724FFF7BDFF0123A3402A1CBB
:100E00001A409A4202D1FFF7C1FF01E0FFF7CAFF83
:100E1000FFF7A4FF013CEED238BD38B50005C02570
:100E2000000DAD0105430C1CFFF78AFF280AFFF7F0
:100E3000DFFFE8B2FFF7DCFF2405FFF775FFB02303
:100E40001B02240D1C43FFF77BFF200AFFF7D0FF96
:100E5000E0B2FFF7CDFFFFF767FF38BD014B187019
:100E60007047C046CFFCFF1F044A00231370044A9A
:100E70001370044B01221A707047C046CFFCFF1F4D
:100E8000CDFCFF1FCCFCFF1F024B1A7801321A70F9
:100E90007047C046CDFCFF1F70B586B0FFF7DEFB84
:100EA00000F0E2FAFFF7F2FEFFF788FFFFF744FCDD
:100EB000364D02AC291C1022201C00F0D7FF291C43
:100EC00010316846062200F0D1FF0025304A6946FD
:100ED0005269002300AE0B704B708B70CB700B719E
:100EE0004B71B2180121013551700026E6540133CF
:100EF000102BFAD1274BFA2198590901FFF7F4FA80
:100F0000254B0830184004D5102301385B421843A4
:100F10000130FF232354043680235B009E42E9D135
:100F20001E4B1B78012B2AD100220023A35401322F
:100F3000102AFAD11A4A11788B4205DA1A11A05CEC
:100F400001333F30A054F7E7164B1B78002B16D027
:100F5000C821281C4900FFF7C7FA0123061C1E40C0
:100F60000DD1281CC821FFF7BFFA331C1918002225
:100F7000CE0700D5E25CE2540133102BF6D1201CE1
:100F800010216A460623FFF791FE9FE7941E00009A
:100F900054FDFF1FFC0200200F000080CCFCFF1F4F
:100FA000CFFCFF1FCDFCFF1F10B588421BD0002ACD
:100FB00019D0031C0B439C0705D1032A03D908C988
:100FC000043A08C0F3E7DC0707D4012A05D90B88E7
:100FD000023A038002310230E9E70B78013A0370EC
:100FE00001310130E3E710BD10B50024094AA31810
:100FF0001968002906D0121950689268FFF7D4FFCB
:101000000C34F3E758680028F5D19B68002BF2D127
:1010100010BDC046901F0000704770470B4B181C56
:10102000002805D0854681B00020C043009001B063
:10103000FFF7F2FF00F0C2F9054B002B01D0FFF7DC
:10104000D3FFFFF7EAFFFFF713FAFEE7000C0020DB
:10105000901F000010B5094B1B78002B0CD0084ADC
:10106000084C0949002313700B702068012200F01E
:10107000C5F8206800F0AAF810BDC046D2FCFF1FDA
:10108000D0FCFF1F00040020D1FCFF1F70B5094CED
:10109000061C25780820EDB2002D0AD1012323700B
:1010A000FFF7D8FF281C002E03D02378012BFCD09B
:1010B000002070BDD2FCFF1F054B1A780923002ABF
:1010C00004D0044B1B881B0103800023181C7047AD
:1010D000D0FCFF1FFC03002010B50C4C0C4B2278F9
:1010E0001868042A06D100F0B1F800232370FFF736
:1010F0009BFD09E0074900F097F8074B01221A70A1
:10110000FFF772FD0023237010BDC046D2FCFF1F05
:1011100000040020FC030020D0FCFF1F08B5054B95
:1011200000201870044B187000F00AF8034B186088
:1011300008BDC046D0FCFF1FD2FCFF1F00040020EA
:10114000194B1A4A30B50021586013601848194AE3
:10115000197099708558802424052C438450164AB0
:10116000C3208000155880242D022D0A24062C430C
:101170001450146880200002204310600F4A104869
:10118000546B204050630F4A17209060D0680F24A2
:10119000A04301242043D0601162402151620A4AD9
:1011A000181C136030BDC046D8FCFF1FD4FCFF1FC5
:1011B000007004403C10000000E100E000A004408A
:1011C000FFF8FFFE00B0034024FDFF1F0A4B802202
:1011D000196A10B51140082200290AD15A6A482418
:1011E000A2435A621A6A4024A2431A6242781A60E1
:1011F0000A1C101C10BDC04600B0034030B5962339
:10120000012A0CD1074B1C6A0823250607D402705B
:101210000A788223002A02D150234370131C181C21
:1012200030BDC04600B0034010B5002302789A429A
:1012300008D91C1D044AA400A4585A000133545272
:10124000DBB2F3E7002010BD00B003400C4B40229E
:10125000596A10B50A401B20002A10D1D96C986C2D
:101260004018596C4018196C4018D96B9C6B401889
:1012700000198021400809020143D962101C10BDE9
:1012800000B0034008B5054B01221B689A705868EE
:10129000FFF722FF024B1B6908BDC046D4FCFF1FAD
:1012A00000B00340F7B50B1C041C161C002901D12B
:1012B00031803BE01E4D211C1A1C2868002300F0E1
:1012C00023FC0C21082831D00024271C286800F0BA
:1012D0002FFB286800F066FC00280ED1286800F07B
:1012E00069FC874204D0286800F064FC114C071C9C
:1012F0000134114BA4B29C42E8D9286800F05AFC92
:10130000308028686D460635291C00F08BFC2B8840
:10131000002B05D008210B4208D115215A0705D40E
:10132000FA230021DB009C4200D10C21081CFEBDE9
:1013300004040020FFFF0000CF07000037B50E4B6C
:1013400020219A78FA248A439A709A7810218A4345
:101350009A70E400094B6D4607351868291C00F0A7
:1013600067FC2B78012B05D0013CA4B2002CF1D1F5
:101370000C2000E000203EBD006006400404002078
:1013800008B5054B7F221B6802400021181C00F0A5
:1013900013FCC0B208BDC0460404002008B50020FC
:1013A00000F070FB014B186008BDC046040400202B
:1013B00008B5FFF713FC08BDFFBE70471F4B204A5E
:1013C000204910B5D150204B88220021520199505C
:1013D0001E48C02292021A501D4AC0219C58C900C2
:1013E000214399501B4A082194780C4202D09478EA
:1013F00021439170802252021A50174A1749985877
:1014000001408020400401439950154B06221A7078
:10141000597840220A405A70D9781F220A40A021E8
:101420000A43DA700F4A802111709A79D106FCD5EF
:1014300099790C221142FBD110BDC046080D000065
:1014400000E000E0000000000070044044100000D4
:101450003810000000D0074004100000FFFFFFFC20
:10146000004006400050064010B5244B1F215A7919
:1014700000248A435A711A7907218A431A71204B32
:1014800073211A788A4350210A431A705A786321CB
:101490008A4340210A435A709A7819218A439A70E4
:1014A000184BC7221C70184B9200995889B299505A
:1014B000164A1749D06A014002200143D162154AF9
:1014C000154950680140C020800001435160C1228D
:1014D00092009858114901409950FFF71FFE201CB7
:1014E00000F028FC00F0A2F800F0ACFB00F0B4FB28
:1014F000FFF754FF00F059F862B610BD00F0074046
:1015000000D0074000E0074000E100E000A00440F8
:10151000FDFFFFFE00900440FFF8FFFEFFFF00FF0D
:10152000F7B5061C40055023400F18430F1C00F070
:1015300020F8051E09D101AC2A1C201C02212670AE
:10154000677000F01FF8051E03D000F019F8281C82
:101550000EE0FF232370052000F03EFC201C01213B
:101560000022642300F022F80028F4D100F008F8EB
:10157000FEBD08B5FFF704FF002800D01B2008BD02
:101580000020704737B5151C6A460632FFF78AFE01
:10159000041E02D0FFF7D2FE05E002239D4302D1D4
:1015A000FFF7CCFE041C201C3EBD704737B5151C50
:1015B0006A460632FFF776FE041E02D0FFF7BEFE33
:1015C00004E0002D02D1FFF7B9FE041C201C3EBD33
:1015D000F7B5124C844627780191131C251C08206E
:1015E000002F1AD10E4A05210E4E116001222270E1
:1015F00030686146019A00F0A3F8002808D13068ED
:1016000000F0E2F82B78002BF9D1074B187803E0B3
:101610002770892800D10220C0B2FEBDE8FCFF1F60
:10162000E4FCFF1FECFCFF1FE0FCFF1F08B50020DF
:1016300000F06AF8044B00221860044B1A70044B47
:1016400001221A7008BDC046ECFCFF1FE8FCFF1F1A
:10165000E1FCFF1FF8B5124C011C2578261C082060
:10166000002D1CD10F4B02220F4F1A60890A8022D5
:10167000012389023868D200237000F07FF8002827
:1016800008D1386800F0A0F83378002BF9D1074B67
:10169000187803E02570892800D10220C0B2F8BD77
:1016A000E8FCFF1FE4FCFF1FECFCFF1FE0FCFF1F3A
:1016B00008B5FFF78DFF08BD024A00231370024AE8
:1016C00013707047E0FCFF1FE8FCFF1F1FB50A4ABC
:1016D00000231370094A69461360094B186800F02B
:1016E00019F969468A78074BD10601D5162200E020
:1016F00003221A7005B000BDE8FCFF1FE4FCFF1FC9
:10170000ECFCFF1FE0FCFF1F094B022210B55A70D2
:101710000022DA701A70DA600649074A5861885860
:10172000012420438850054A181CD36010BDC046D0
:10173000F0FCFF1F007004403C10000024FDFF1F60
:1017400070B54578041C0820022D14D80A4D5E1E81
:101750008920AE420FD880252D02ED1AAA420AD860
:1017600002202070042060700620A0700020A3607A
:10177000E1602261606070BDFF7F000030B5447899
:10178000031C0820022C1BD80E4C551E8920A54294
:1017900016D880242402A41AA14211D80C1C144388
:1017A000A405A40D0CD19A6080220320D2001870E9
:1017B0005A60042009225870DC6019619A70201C5C
:1017C00030BDC046FF7F0000F0B5012391B05B4201
:1017D0000393002304934578EA1E022A00D98EE081
:1017E00048490C780A1C64B29C4200DB87E07024F4
:1017F000042D02D10C70C37013E00978C578214024
:101800002943C17004D043704069FFF75FFF76E061
:101810008168002905D1022343704069FFF74CFF1E
:101820006DE00378991E012969D8147870210C4263
:1018300065D14178042902D10521417009E005698B
:1018400041686C1804615C1E012C02D8C6687118CE
:10185000C160022B06D0032B35D187682A497B183B
:10186000836032E0036985680093009C0323234072
:101870000424E41AE4B2A54200D2ECB20021CEB2B4
:10188000A6420AD2C76803AE7F5CF618775404AE4E
:10189000F618FF2777540131F1E70099039ECF1A1C
:1018A0003968049FC9433740394204D0C3780422C1
:1018B0001343C37023E044602C1B8460134C7140BD
:1018C0000391216002E0012B19D000238178D171AE
:1018D0000469E11AC9B21171056905ACE91A090A6E
:1018E000C9B251710169201CCB1A1B0CDBB2937178
:1018F0000749282200F0BAFA01231C43A04711B07F
:10190000F0BDC0460000024000FCFFFF080002409E
:10191000CC1E000003780B7083784B70C3788B70FB
:1019200003694B60C36840688B60C8607047000003
:10193000F0B5534B0227D9781A1C394200D19EE0EA
:10194000DE78D9781224A143F6B23143D9709D785C
:10195000202425401021002D00D180E09D780D42EB
:1019600056D001252E420FD09A78A2439A709A78C9
:101970008A439A7000230382038103780622AB43D3
:1019800013430370082377E006783E423AD0078A73
:10199000002F0AD0428A013F013242824269078207
:1019A000511C416112781A7169E00789002F1BD020
:1019B00004210E420ED008239178012F01D10B4350
:1019C00001E099430B1C9370937810218B43937023
:1019D000137954E09A780A439A70C27915431D71BD
:1019E0000378194301704AE08278AE430670012AF9
:1019F00005D19A78A2439A709A788A439A7043786C
:101A0000012229E082791A7103781F43077036E0BA
:101A100003894189013B9BB2013103814181002B44
:101A200005D0012B0ED1937808210B4309E00378F0
:101A300001218B43037093780821A343937093781B
:101A40008B439370C368591CC16012791A70038963
:101A5000002B14D143780222134343700FE00E424F
:101A60000DD00478012294430582058182700470B0
:101A70009A788A439A700423828813438380F0BD46
:101A800000600640194B202270B51A7010229A711E
:101A9000012298619A701648002216495A704458DB
:101AA00040252C435A811A815A821A829A804450C6
:101AB000114950208A7088710220C8700F48104D5B
:101AC000066980242E40A40026430661C66835407E
:101AD0002C43C4604A718A713A224A708878802205
:101AE00002438A70074A181C136170BD08FDFF1F6E
:101AF00000700440341000000060064000A0044064
:101B0000FFF8FFFE24FDFF1FF0B5002A01D10024DD
:101B100043E08578012D0BD1214CE6780824B706E7
:101B20003BD406782E4238D1048A002C34D104E00C
:101B300005780824EE0730D4F6E70578012683708F
:101B40003543174B41610570448202829A78102117
:101B50000A439A7099782022114202D09A7804217F
:101B600000E099780A439A700278970604D5062116
:101B70000A430270827906E01021114005D0062147
:101B80008A430270C2791A7107E01507BFD5022592
:101B90002A430270197100E00824201CF0BDC046E1
:101BA0000060064042780123111C99434170101CCB
:101BB00018407047408A704730B5047801252540A9
:101BC0000823002D2AD1012914D0002906D002298A
:101BD00023D130229443234303701CE089237F2ABE
:101BE0001CD818239C4320231C435200827104708C
:101BF0000B1C13E00A4989238A420FD806238271FD
:101C0000D2091A4010235B421A4328239C43102315
:101C10001C43C27104702B1C00E08D23181C30BDC6
:101C2000FF0300008288031C00200A809880704710
:101C3000034B0020DA780123520993430B7070475D
:101C400000600640024B034A59690A405A617047D6
:101C500000F00F40FFEFFFFF024B034A59690A40B3
:101C60005A61704740F00F40FFD7FFFF08B5FEF7FD
:101C7000B6FF08BD70B51A4C6368002B2AD1194A0B
:101C800001211171184990600A601848184980258F
:101C900046586D04354345501649C4200B604B60CF
:101CA000CB604B61144B80008B6080235B00136022
:101CB000124B134D1E5835408026360235431D50B9
:101CC0001D68802080022843186048230B606260F2
:101CD000131C03E01A79986001321A71181C70BD48
:101CE00024FDFF1F3CFDFF1F38FDFF1F0070044057
:101CF0003C100000008003405E09000000E100E0AD
:101D0000FF00FFFF094B80211A68094B10B51868C6
:101D10000840441EA04114680002044205D018681F
:101D200001431960906800F01BF810BD38FDFF1FDB
:101D30000080034038B5084C084DA0600123002006
:101D40002371AC60FFF796FF2060002801D1A860E6
:101D500000E0201C38BDC04648FDFF1F24FDFF1FCA
:101D600008B5034B9B689868FFF780FF08BDC04625
:101D700024FDFF1FC046C046C04670470020C04635
:101D8000C046C046C046C04601300928F7D9C04603
:101D9000704710B5041C642C04D9643CFFF7EEFFB7
:101DA000A4B2F8E70A2C04D90A3CFFF7E3FFA4B277
:101DB000F8E710BD10B5041C0548844204D9FFF7AC
:101DC000E8FF044BE418F7E7A0B2FFF7E2FF10BD0D
:101DD00060EA0000A015FFFF10B5041C002C05D020
:101DE0000348013CFFF7E6FFA4B2F7E710BDC04689
:101DF00064BB0000084B10B5041C002B02D000216E
:101E000000E000BF054B1868836A002B00D098479C
:101E1000201C00F03DF8C04600000000F81E000045
:101E200070B50E4B0E4D0024ED1AAD101E1CAC42C9
:101E300004D0A300F35898470134F8E700F05EF8A7
:101E4000084B094D0024ED1AAD101E1CAC4204D005
:101E5000A300F35898470134F8E770BD1C1F000039
:101E60001C1F00001C1F0000201F000010B50023D5
:101E7000934203D0CC5CC4540133F9E710BD031C7A
:101E80008218934202D019700133FAE770470000BC
:101E9000FEE7C046FF000000FF000000FF0000005A
:101EA000FF000000010101010101424C4F004B49BC
:101EB0004C4C00424F4F5400444F4954004441435E
:101EC00053004545505200464C41530007B4074962
:101ED0008020087008780006FCD505490A68D220E1
:101EE0004002104308600A6007BC704700000240CF
:101EF0000C3000F0430000000CFCFF1FF8B5C0469A
:101F0000F8BC08BC9E467047F8B5C046F8BC08BC93
:101F10009E4670475CE5FF7F010000003904000029
:101F200011040000282300002823000028230000BB
:101F300000000000000000000000000000000000A1
:101F40000000000000000000000000000000000091
:101F5000F41E00000000000000000000000000006F
:101F60000000000000000000000000000000000071
:101F70000000000000000000000000000000000061
:101F80000000000000000000000000000000000051
:101F9000241F000000FCFF1F6C0000000000000078
:081FA000000000000000000039
:10200000000C0020016200009D680000A56800002F
:10201000A5680000A5680000A5680000A56800008C
:10202000A5680000A5680000A5680000A56800007C
:10203000A5680000A5680000A5680000A56800006C
:10204000A5680000A5680000A5680000A56800005C
:10205000A5680000A5680000A5680000A56800004C
:10206000A5680000A5680000B1720000A568000026
:10207000A5680000A5680000A5680000796500005B
:10208000A568000031750000A5680000A568000083
:10209000A5680000A5680000A5680000A56800000C
:1020A000A5680000A5680000A5680000A5680000FC
:1020B000A5680000A5680000A56800009168000000
:1020C00010B5064C2378002B07D1054B002B02D00E
:1020D000044800E000BF0123237010BD08FCFF1F6F
:1020E000000000003079000008B5084B002B03D039
:1020F0000748084900E000BF07480368002B03D0E9
:10210000064B002B00D0984708BDC04600000000D9
:10211000307900000CFCFF1F08FCFF1F00000000CE
:10212000002934D00123002210B488422CD301248A
:102130002407A14204D2814202D209011B01F8E71F
:10214000E400A14204D2814202D249005B00F8E7D8
:10215000884201D3401A1A434C08A04202D3001B04
:102160005C0822438C08A04202D3001B9C08224337
:10217000CC08A04202D3001BDC082243002803D075
:102180001B0901D00909E3E7101C10BC70470028A7
:1021900001D00020C04307B4024802A140180290B9
:1021A00003BDC046D90000000029F0D003B5FFF7F9
:1021B000B9FF0EBC4243891A1847C046002941D0D6
:1021C00010B4041C4C40A44601230022002900D571
:1021D0004942002800D5404288422CD301242407DC
:1021E000A14204D2814202D209011B01F8E7E400B6
:1021F000A14204D2814202D249005B00F8E7884242
:1022000001D3401A1A434C08A04202D3001B5C08B9
:1022100022438C08A04202D3001B9C082243CC0816
:10222000A04202D3001BDC082243002803D01B0974
:1022300001D00909E3E7101C6446002C00D5404298
:1022400010BC7047002806D003DB0020C0434008C4
:1022500001E08020000607B4024802A14018029065
:1022600003BDC046190000000029EBD003B5FFF7FD
:10227000A7FF0EBC4243891A1847C0467047C046A4
:102280009C460304F0B51B0C17043F0C150C1E1CD8
:10229000041C000C7E436B4347434543FB18300C42
:1022A0001818874202D980235B02ED18030CED1841
:1022B00063465C434A433604360CA1180004801977
:1022C0004919F0BD016070470268044B5343044A4A
:1022D0009B1803605B00580C7047C046FD43030029
:1022E000C39E260008B5FFF7EFFFC011C0B208BDBE
:1022F00008B5FFF7E9FF8004C00F08BD10B50C1C3E
:10230000FFF7E2FF83041B0ED817E20FA3425041F0
:10231000C0B210BDF0B54D465F4656464446F0B4D7
:10232000416899460B1C87B064333BD092780F24E8
:102330004A44127B006814406500120993462A192A
:10234000920012194A441832AA46127A002906DA73
:1023500001388918FCD48A4203DC891A01308A4288
:10236000FBDD114F02AE3A1CB046A8CAA8C61268DF
:10237000534632601E19B60034194D462B190130F0
:1023800059185E4643001818097DB300474680007F
:10239000DB590818C01807B03CBC90469946A246C5
:1023A000AB46F0BD081CF6E7287600007047C04633
:1023B00008B502F083FA08BD7047C04608B502F0C0
:1023C00051FF08BD70B582B06D46094E0024063538
:1023D000E0B2291C03F09EFF2A88A3000134F250CA
:1023E000042CF5D1034B01221A6002B070BDC04627
:1023F0008005002024FCFF1F7047C04608B5034B32
:10240000586904F03DFA02F03BFB08BDF4FCFF1FE5
:1024100008B5044B586B04F0B3FE002801D102F05C
:1024200027FB08BDF4FCFF1F7047C0467047C0463D
:10243000DC2210B5815C029BC9091970DD21445C66
:10244000E4099C70415C4900D97000219980825C4C
:102450005207920F5A7010BD7047C04638B5DC2342
:10246000051CC05C8B780F21D3181B7B049C0B4090
:102470005900C9188900CB18D2181832137A55217F
:102480005843FFF79BFE0130C0B22071DD23EB5CA7
:10249000FF215843FFF792FE607138BD7047C04678
:1024A0007047C0467047C046F0B5474680B4181C18
:1024B000069E1D1CFFF708FF072420403080281CC3
:1024C000FFF702FF04407480341D8436B0460726AF
:1024D000271C1037281CFFF7F7FEC217520F801871
:1024E0003040821A2270281CFFF7EEFEC217520FEE
:1024F000811831408A1A62700234BC42EAD14445E4
:10250000E6D104BC9046F0BDF8B51D1CDD23C15CCE
:10251000069C071C8908281CFFF7D4FEDC23F95C05
:10252000261C84368908301CFFF7CCFE301CFFF7D0
:10253000CBFE0721FFF798FE002649002170667048
:10254000281CFFF7C1FE0321FFF78EFEC9B2A17060
:10255000E1802672281CFFF7B7FE0721FFF784FEF3
:10256000281CE170FFF7B0FE0521FFF77DFE217109
:10257000F8BDC046F8B51D1CDC23C15C069C071CD9
:10258000C908281CFFF79EFEDD23F95C261C843653
:10259000C908301CFFF796FE281CFFF795FE072799
:1025A00038402080281CFFF78FFE07406780301CD2
:1025B000FFF78AFE15231840A080062804DC044893
:1025C0000023A080E380F8BD0B3880B2F8E7C04656
:1025D000FCFF0000F8B5DD22815C051C8908181C91
:1025E000069CFFF76FFEDC23E95C201C8430890821
:1025F00000270D4EFFF766FE27600120A95D4042CF
:10260000FFF78EFD237C012293436060A760237453
:10261000A95D032905D989100448FFF781FDE06011
:10262000F8BD0248FBE7C046A5040000FFFFFFCF4E
:1026300038B5181C1D1C049CFFF746FE011C606089
:10264000201CFFF73FFE281CFFF73EFE0321FFF78B
:102650000BFE281C2172FFF745FE01231A1C0240C5
:10266000607A98431043607238BDC04670B5061C4E
:10267000181C1D1C049CFFF727FE011C6060201C19
:10268000FFF720FE281CFFF71FFE0321FFF7ECFDDC
:102690000231A172281CFFF717FE0521FFF7E4FDA8
:1026A000281C6172FFF710FE032318400130400020
:1026B0002072281CFFF71CFE0023002814D1E372AF
:1026C000002323736373281CFFF712FE00230028E6
:1026D00003D0281CFFF70CFE031CA373DC23F35C60
:1026E0009B090333E37370BD281CFFF701FE031C35
:1026F000E5E7C04638B5181C1D1C049CFFF7F8FD23
:102700002080281CFFF7F4FD6080281CFFF7F0FDF7
:10271000A080281CFFF7ECFDE08038BDF0B54746EF
:1027200080B41E1CDD238846C15C051C8908301C52
:10273000069C171CFFF7C6FDDC23E95C201C090979
:102740008430FFF7BFFD201C183002F0E9F8301C80
:10275000FFF7BAFD00230004E0602061636123609D
:1027600041464A78064BBF18EB5C397A0120594341
:102770004042FFF7D5FC606004BC9046F0BDC04607
:10278000A404000030B5054C0501054B28190124AF
:10279000016042608360047330BDC046C8FFFF1F04
:1027A000A5240000F0B55F46444656464D46F0B4B9
:1027B0003A4B83B0C35C071C0C9C052B00D9052346
:1027C00023713B1CDD331978201C89088430FFF706
:1027D00079FD3823C8215B42257900268946984631
:1027E000AE420CDA4846A3197043291C9A46FFF7FB
:1027F000E5FC4146081A534698710136F0E7DC378C
:1028000039782B1C0122022B02DD5A43013BFAE7E7
:102810005200101C4843FF21FFF7D0FC002833D0A2
:1028200000231A1CAB4203DA6E469A550133F9E7CE
:102830000022A11D01268B46131C9046B446AB42D4
:1028400022DA6946CF5C9F4219DA5E46F118664685
:10285000334204D1A7790E78A6710F7006E05F4469
:102860003E78B1460E783E704E460E7082420BD0D6
:102870006E46F15C01320131F1540023DFE7464638
:102880006946CE540133DAE70023637103B03CBCE0
:1028900090469946A246AB46F0BDC046A40400004F
:1028A00070B5181C1D1C069C049EFFF71BFD2070B4
:1028B000281CFFF71DFD031C581E8341A078012230
:1028C00090431843A070281CFFF7FEFCC3175B0F52
:1028D000C01807221040C01A072805D82A4A8300CA
:1028E000D3589F4600236370A378D9070CD50728D7
:1028F0000AD8264B80001B589F460C236370A37890
:10290000DA0701D5012363700022B35E002B0BD0E0
:10291000059B072B07DC63780333DBB2637002216E
:10292000725E002A08D170BD0222B35E002BFAD07D
:10293000059B072BF7DC6378053B6370F3E7F42313
:102940006370A378D907DFD5F4236370DCE7012334
:102950006370A378D907D7D500236370D4E7032326
:102960006370A378DA07CFD503236370CCE707231E
:102970006370A378D907C7D5F2236370C4E70D232A
:10298000E6E7FE236370BFE7487600006876000044
:1029900038B5181C1D1C069CFFF7A4FC2070281CD1
:1029A000FFF7A6FC031C581E8341A0780122904328
:1029B0001843A070281CFFF787FCC3175B0FC018D3
:1029C00007221040C31A072B0AD8274A9B00D35866
:1029D0009F460D236370A378D90701D50023637048
:1029E00004990023CB5E002B02D0059A082A0BDD48
:1029F00004990223CB5E002B05D0059A052A02DC40
:102A00006378033B637038BD637807336370EFE727
:102A10000C236370A378D907E2D501236370DFE745
:102A20000023D7E7F423A2786370D107D8D5637069
:102A3000D6E70F236370A378DA07D1D5FE2363703E
:102A4000CEE701236370A378DA07C9D50C2363703E
:102A5000C6E70323E7E707236370A378DA07BFD548
:102A6000F2236370BCE7C0468876000070B5054C61
:102A700004AD06012D783019057301604260836052
:102A800070BDC046C8FFFF1F10B5E423CB5C032414
:102A90002340022B15D0032B0FD01278012B06D028
:102AA00089180A799523DB009200C25410BD891859
:102AB0000A799523DB00D200F7E79523DB0060223B
:102AC000F3E79523DB004022EFE7C046F0B55F4611
:102AD00056464D464446F0B4704F714E83B0051CC7
:102AE0000024201C391C0134321CFFF74BFE102C33
:102AF000F7D16C4C6C49221C0820FFF743FE0126DD
:102B0000221C6A490920FFF73DFE6949694A6A4B60
:102B100000960520FFF7AAFF684B6949694A0096AD
:102B20000620FFF7A3FF6849684A0120FFF72AFE45
:102B30006749684A0020FFF725FE6749674A032076
:102B4000FFF720FE6649674A0220FFF71BFE664931
:102B5000664A0420FFF716FE6549664A0720FFF71C
:102B600011FE6549654A0A20FFF70CFE6449654A73
:102B70000B20FFF707FE6449644A0C20FFF702FEB2
:102B80008820602181468C469420982183468A467D
:102B90009C2049466E5080469521A02081468C2479
:102BA0006046C9002E5101226854AC2100235242D4
:102BB0008C466827594680206B702B666B66EB66E7
:102BC0006B67AB672B67EA67EB532B506B50B821F1
:102BD0008B4651466B50BC218A4641466B50C02102
:102BE000884649466B50C4218946A424A8212B510C
:102BF0006B5061466B50C9218C46B0275946B420B2
:102C0000EB512B506B50CC218B4651466B50CD2154
:102C10008A4641466B509021884649466B500A21AE
:102C200000248946C8216C5461466C54CA27D821B7
:102C30008C46EC5551465F46CB202C54EC556C54D9
:102C400047464946E951D027EB516746EA51D4221D
:102C5000AB50281D0021182204F0DDFC281C0021A7
:102C60001822203004F0D7FC281C002110224C3000
:102C700004F0D1FC281C002110223C3004F0CBFCD5
:102C80002349244AE0236E54AC54EC5403B03CBCBA
:102C900090469946A246AB46F0BDC046A12400002E
:102CA0009D240000F5260000894100002138000025
:102CB0005D35000031260000292400002D2400008D
:102CC000C13600006D260000A13D00007525000002
:102CD0001D3D000031240000F5400000A924000043
:102CE0005539000009250000553F0000D52500009A
:102CF0005D4300001D270000314400005D240000FA
:102D0000A1440000A5270000E14200005924000072
:102D1000A6040000A7040000F8B5682246468823F0
:102D20009046A022041C00259C464F4691464246F0
:102D3000C0B40123A552802762468C26AC2165666B
:102D4000A350E551A55163504B46E5500021182290
:102D5000B03004F060FC231C0022C833D020D42102
:102D60001A705A709A70DA701A715A71255065503B
:102D70000CBC90469946F8BD9423C35870B5041C0A
:102D80009026002B00DC8FE0616E94200025A3517B
:102D9000DE222550A25C00291FDD01398A4212DBA8
:102DA0006166E06F43001D18E03565192E79043522
:102DB0008E4217DA002809D10A23E3600A2323612F
:102DC0000A23636170BD6266111CEAE73B4BE15C5C
:102DD000FFF74AFA0029F3D1F0E7E06F43001D182E
:102DE0006519E4351B18E3186266E0339A7929788F
:102DF000D207D20FD2B2D6014908B21A8A181201EC
:102E0000682162525B795BB21A1C643208D164217A
:102E10000023494268222166A3526360A360C9E788
:102E200098010C21FFF7CAF9C823DB025843C117E8
:102E3000490C0818C113002001F04AFD0004206766
:102E4000A9784907890F31D0E36E32267143C01A41
:102E5000FFF7B4F96067AB785B079B0F5E43A6672B
:102E6000E06F052143001A18A218E0325156902550
:102E700065592166927961685206120F6A430029EA
:102E800019DD52420A21626021621B18E318E03307
:102E90009979CD070CD5216AA26061625B795BB23A
:102EA000643300D086E7B2E701236DE7E066D7E739
:102EB0000022A260F2E76260E7E7C046A4040000D7
:102EC00038B59422A4238558041CC1589820205852
:102ED00001350131A550E1500122002803D1FA202B
:102EE000C000814226DC23780133DBB22370D9078E
:102EF0001FD49521C900DF23615CE35C002A18D14F
:102F0000C82253431B1201339B1059431148FFF74A
:102F100055F98C22A358051C013B98420EDBA350A7
:102F2000002B0EDDAC23E358012B0AD0002001F06A
:102F3000B5FD38BD08490022E150D4E7A050031C7C
:102F4000EEE7012001F0AAFDAC2200218C23A15064
:102F5000E550EEE760EA0000B80B0000F0B5474628
:102F600080B4041C012B04D00023836104BC904670
:102F7000F0BD0A238361E423CB5C03200340022BD2
:102F80006DD0032B65D01278012B2FD089180979C9
:102F90009523DB008900C9B2E154A023E5588D4296
:102FA00034DA324A8023A05CE7588000304B474334
:102FB0006843E65CFFF702F9311CC019FFF754F9CA
:102FC000882023588422A150012B37D0E36F8B42F5
:102FD00012D1AC23E358012B0ED09C23E1580131D0
:102FE0000135A0229C23A550E150BFE7891809793B
:102FF0009523DB00C900CEE7E16701F02DFDA0239A
:10300000E5580022AC23E2500121E9E7174880226D
:10301000A558275C0135381C6843154E84460020AE
:1030200080466046A65D800084464046A550E0503C
:10303000B44509DABF006F430025BBE70021AC2689
:103040002150A150A351C1E7A05000250020002726
:10305000B0E79523DB006022E25460219DE79523D1
:10306000DB004022E254402197E7C046A404000060
:10307000A5040000F0B5454657464E46E0B4041C92
:10308000DF20205C9D4E982563518846171C000266
:103090000525B0420DD99A4A0425904209D9994A8A
:1030A0000325904205D9984A022582428041404238
:1030B0002D1AD8202258AA4206D02A1C2C3292005F
:1030C0001159A0222550A150012B14D0D423E65829
:1030D000291C301CFFF7C8F800290AD0701C291CD5
:1030E000FFF7C2F8D423E1501CBC90469946A24693
:1030F000F0BDA161F2E7D023E658291C301CFFF790
:10310000B3F800292DD0701C291CFFF7ADF8C92396
:10311000E25CD0200132D2B22150E254012A00D127
:1031200091E0CA23E25C0132D2B2E254022A7ED09C
:10313000CB23E25C0132D2B2E254032A6BD0CC231F
:10314000E25C0132D2B2E254042A58D0CD23E25CD0
:103150000132D2B2E254052A45D0A4230022E25023
:10316000C2E70A23A361E423FB5C03221340022B82
:1031700000D1BCE0032B72D0012B00D1AFE041465F
:103180000A789523BF183979DB008900C9B2E15468
:10319000A023E7588F4274DA5C4A8023A05CE2588F
:1031A000800042435A4B7843E35C91469846FFF7D0
:1031B00005F841464844FFF757F8882023588422F1
:1031C000A150012B7BD0E36F8B424ED1AC23E3584F
:1031D000012B4AD09C23E15801310137A0229C23C6
:1031E000A750E1508FE7C42595226059D200A15C19
:1031F00000220130E254FFF737F86151ADE7C025F6
:1032000095226059D200A15C00220130E254FFF700
:103210002BF861519AE7BC2595226059D200A15C38
:1032200000220130E254FFF71FF8615187E7B8250B
:1032300095226059D200A15C00220130E254FFF7D0
:1032400013F8615174E7B42595226059D200A15C4E
:1032500000220130E254FFF707F8615161E795233E
:10326000DB006022E254602192E7E16701F0F4FBA9
:10327000A022D023A758E6580022AC23E250012117
:10328000ABE78020214F2258E75D0132BA46574311
:10329000B9461F4FB8460027BC464746E75D225057
:1032A000B8464F46BF00B9466746E750C14510DAF9
:1032B00053469F0057430020B946002777E7002177
:1032C0008846AC218C4641462150A1506246A3500D
:1032D00079E76746275000270020B94667E743464D
:1032E0001A789523BF183979DB00C9004EE795237A
:1032F000DB004022E25440214AE7C046333300005D
:103300006666000099990000CCCC0000A40400007F
:10331000A504000030B541788578C478027803238D
:103320001C4019401A402B40C470417002708370D9
:1033300030BDC046F0B55F4656464D464446F0B4F3
:103340003225022300220124AB4631254A708C70BD
:10335000CB700B70AA46037139255B46A94683746E
:1033600034255346A846037405254B46AC464374A2
:1033700043460322E4240421C37483B06346082730
:1033800010262025C371427147728672C572031CD4
:1033900002550190817101721022012400201875DC
:1033A000022098750320D8750420187605205876D9
:1033B000082506209876AB4607201D1CD8762035B8
:1033C000584609210A260B2718775C7559779E778E
:1033D000DF7703202C700225AC46824604250520A9
:1033E000013AA9460D3380460725002AD6D1019817
:1033F00001244473644684735446C473644644751C
:103400004C4684752023444602730275C4750576C4
:1034100041768776C5546223C25463244B460355D4
:1034200065246423C55407554B466E240355212457
:10343000025522236446C45454462323C4544446AC
:103440002423C4542523C55426245B46035527242E
:1034500006552D236F24C554025570235446C45479
:10346000722371240555C1547B244B4603552E23EA
:10347000C2542F2463460355534630240355062374
:10348000312403553223C554332434230155C65403
:103490003A2448230555C2544924634603554346FC
:1034A0004A2403554C234B240555C1545424434608
:1034B00003553B23C2543C245346035543463D2405
:1034C000035506233E24035540243F23C554065587
:1034D0000623472403555524025556230122C2547E
:1034E00062465723C25458245346035559224B462B
:1034F0005D248354A24660225F24A446914644463C
:103500005A230C22C45490465B24062202555C24A4
:1035100005555A4655465E24425561230155654678
:103520004946424646554754C25403B03CBC9046B7
:103530009946A246AB46F0BD08B5FFF7FBFE08BDB5
:10354000837878229343202213430C224270F8227E
:1035500013408370FF2303707047C046F0B55F4689
:10356000564644464D46F0B483B00E9D8846834689
:10357000281C161C1F1C0C9CFFF7E2FF4246137808
:103580000D98F3181979FEF76FFE8A46002966D068
:10359000607AC007C00FC0B2012800D17FE0201CB4
:1035A0002021FEF7ABFE002803D0AA7801231343A5
:1035B000AB70201C8021FEF7A1FE002840D1201C0A
:1035C000D021FEF79BFE002821D064235B420193AB
:1035D000002300934246331C59466846FEF79AFE84
:1035E0006870381CFEF77EFE0222A35E0D9A40082A
:1035F0009F18C0B20023002F00D17F231B182B700F
:1036000003B03CBC90469946A246AB46F0BD53463B
:103610005A00237A0090D318201C0193FEF762FE13
:103620000321FEF7C1FD4A008A1852000F2304321D
:103630001A40AB787821D2008B431343AB70C9E7B3
:10364000201CFEF74FFE0321FEF7AEFD03231940B9
:103650004B00A978062291431943A970AFE7AA78D5
:1036600001231343AB70201C6168FEF72BFE381C4E
:103670002021FEF743FE00281AD1381CF021FEF766
:103680003DFE002800D183E7381CFEF72BFE627A4E
:1036900001239A431840131C034363727CE742469C
:1036A00013785246F3181B799B1A013B9A4676E72A
:1036B000381CFEF709FE0321FEF7D6FD2172DCE778
:1036C000F0B556464D465F464446F0B485B0109D71
:1036D0008346281C01930E9C8A469146FFF730FFD3
:1036E00000230293267B002E3FD1E37B677B984625
:1036F0009F4244D0381C4146FEF756FDA37BC9B219
:10370000002B02D04346591A013900230293A37AB1
:1037100001375943637A6773C9180391E37A2373B6
:10372000002B13D19E192673594652464B4602A8C8
:10373000FEF7F0FD6870201CFEF7D4FD287005B080
:103740003CBC90469946A246AB46F0BD01335A00B8
:103750009B185B00023B0F221A40AB787821D20005
:103760008B431343AB70237BDCE7013E2673AB78BE
:1037700001229343AB7064235B420393D4E7237A23
:103780006673013B2372AA7801231343AB7001983F
:10379000C821FEF7B3FD061E0AD1237A002B10D0F4
:1037A000201C6168FEF78EFDE37B677B9846A1E7EE
:1037B0000198FEF789FD0321FEF756FD4E1CF6B277
:1037C000EBE70198FEF780FD60600198FEF77CFD55
:1037D0000321FEF749FD0231A1720198FEF774FD45
:1037E0000521FEF741FD01986172FEF76DFD03238F
:1037F00018400130400020720198FEF779FD002842
:10380000CED00198FEF774FD0023002801D1A373E8
:10381000C6E70198FEF76CFD031CA373C0E7C04622
:10382000F0B557464E464546E0B482B00C9C1D1C90
:1038300080460023201C8946924600930193FFF79F
:103840007FFE281CFEF740FDC7177F0FC019072613
:103850000640F61B072E06D83C4AB300D3589F46B5
:10386000002301930093A378D9070CD5072E0AD81B
:10387000374BB6009B599F460123019300230093C9
:10388000A378DA0757D4009B01330B9A062A0FDC82
:103890000A9900228A5E002A02D1019A013201921D
:1038A0000A9902228A5E002A02D1019A023A019202
:1038B000281C0093FEF716FD2070281CFEF718FD4B
:1038C00001252B1C0340A0784146A8431843A07053
:1038D0004A4668465346FEF71DFD607002B01CBCA8
:1038E00090469946A246F0BD00230193A378DA07DB
:1038F00001D5012301930223C7E700230193A37895
:10390000D9071BD40023C0E702230193A378DA0769
:10391000EFD40123B9E704230193A378D907F8D59D
:1039200001235B4201930123AFE70123019300933D
:10393000A378DA07A7D500230193DCE700230193DE
:10394000F1E701235B420193D5E7C046A87600006A
:10395000C8760000F0B55F4656464D464446F0B482
:1039600087B0129D109C8346281C029103921E1C56
:10397000FFF7E6FD6778002F59D014235B427B43A5
:103980006433DBB2019364235B4205930023049309
:1039900084223223013F04A912199946D84B67703B
:1039A000884692460027E3802772039B404659468B
:1039B000029AFEF7AFFC68706378002B57D1301C79
:1039C0004946FEF79BFC002815D0301CFEF77CFC16
:1039D000C217920F8018032303409B1A01335A0029
:1039E0009A1852000F23023A1A40AB787821D2007D
:1039F0008B431343AB705046FEF766FCC3179B0F17
:103A0000019A18188010101828704946301CFEF7CB
:103A100075FC01231A1C0240A87898431043A87033
:103A200007B03CBC90469946A246AB46F0BD237811
:103A30000F2B40D0842109198A46301C6421FEF7DF
:103A40005DFC002853D1301C6421FEF757FC002890
:103A500045D1301C6421FEF751FC002837D1237872
:103A60000D2B00D91BE1A74A9B00D3589F465A0053
:103A70009A1852000F23023A1A40AB787821D200EC
:103A80008B431343AB709AE7301CFEF71DFCC30F4A
:103A90000122C0181040C31AE318DB780492227880
:103AA00004A90132227032228846059391460127EB
:103AB0006421019177E784221219101C9246FEF7C7
:103AC00003FC0721FEF7D0FB49002170B5E7301C4D
:103AD000FEF7FAFB0521FEF7C7FB2171BFE7301C9B
:103AE000FEF7F2FB0721FEF7BFFBE170B1E7301CE8
:103AF000FEF7EAFB0321FEF7B7FBA170A3E79623CD
:103B00009946A37804A90593504600238846049358
:103B1000FEF7EEFB002800D0D4E004990F234246C4
:103B20002370CFB29388642201923CE79623994692
:103B30005046FEF7DDFB002800D0CDE00F232370B8
:103B4000A378002204A90492884605936422EBE737
:103B500032218946ECE7A37804AA05935046002356
:103B600090460493FEF7C4FB002800D0CCE00F235E
:103B70004146049A23708B889621D7B289466422E5
:103B8000D2E7A378002204A904920B22227088466F
:103B90000593322291468BE70022A37804920722F4
:103BA00004A92270962288460593914680E7301C2E
:103BB000FEF78AFBC30FC01801273840C31AE31869
:103BC000DB7804AA9046059304975046FEF790FBD5
:103BD00000286ED10F234146049A23708B8832212E
:103BE000D7B28946CBE732238AE7A37804AA0593A4
:103BF000301C002390460493FEF766FB0321FEF77A
:103C000033FBAB78013103220A40062152008B437B
:103C10001343AB705046FEF76BFB0028DAD05046DA
:103C2000FEF752FBC30FC01801221040C31A637085
:103C3000D0E704AB98460621635E42465360237A80
:103C400050460493FEF754FB00284FD1049A0F23EB
:103C500041462370D7B28B880022322189460192D7
:103C6000A1E6301CFEF730FBC30FC0180127384017
:103C7000C31AE318DB7804AA301C90460593049716
:103C8000FEF722FB0321FEF7EFFAAB7801310322A6
:103C90000A40062152008B431343AB7095E7E3883B
:103CA00004A91AB20592277A884604979BB2322259
:103CB00070E75046FEF708FBC30FC0180740FB1A19
:103CC000637087E75046FEF7FFFAC30FC018012262
:103CD0001040C31A637020E75046FEF7F5FAC30F91
:103CE000C01801221040C31A637027E75046FEF740
:103CF000EBFAC30FC01801221040C31A6370A5E786
:103D00009CFF0000E87600005046FEF7DDFAC30F86
:103D1000C01801221040C31A637028E7F0B54E4660
:103D200045465746E0B482B00C9C0A9D8246201C52
:103D300089469046FFF704FC2E78002E29D0012EEC
:103D40001FD06B7803221A40A378062152008B43C0
:103D50001343A37051464A4643466846FEF7DAFAD3
:103D6000A1786070AA78012399431A400B1C134371
:103D7000A370EB78237002B01CBC90469946A24613
:103D8000F0BDAB881AB20192013300220092AB80E1
:103D9000D7E70B9805210196FEF766FA0091D0E768
:103DA000F0B556464D4644465F46F0B485B0109C8B
:103DB0000E9E8246201C894690461D1CFFF7C0FBC4
:103DC0000222B05E0F9B0321C018FEF74DFA0129B5
:103DD00000D187E0022900D172E0002944D0FF22FF
:103DE00001923223002264269B46009202AF514684
:103DF000381C4A464346FEF78DFA59466070281C27
:103E0000FEF77CFA002844D1281CFEF75DFAC30FA8
:103E10001818009B40101818311C2070281CFEF741
:103E20006DFA0126331C0340A0780199B043184372
:103E3000A070281CFEF762FA00280ED0281CFEF79E
:103E400043FAC30FC0180640F31A03261E40A37896
:103E50000622760093433343A37005B03CBC9046E2
:103E60009946A246AB46F0BD371C8437381CFEF796
:103E70003FFA012847D00422B35E02AF7B600023E3
:103E80000293FF230193322200236426934600937A
:103E9000ADE7281CFEF718FAC217920F801803230B
:103EA00003409B1A01335A009A1852000F23023A1A
:103EB0001A40A3787821D2008B431343A370A3E761
:103EC0000022B35E02AF281C7B600291FEF710FA5D
:103ED00001282AD0C0220192B1237F22E3269B46EB
:103EE000009284E70422B35E02AF281C7B6002913B
:103EF000FEF7FEF90128C4D1281CFEF7E5F90723D7
:103F000018407080BDE7381CFEF7F2F90128B2D1E5
:103F1000381CFEF7D9F915231840B080062812DDA9
:103F20000B3880B203B2B080A7E7281CFEF7CCF9AB
:103F3000C0230006400F0193B1227F2330809346B7
:103F4000E326009353E7024804235B42B08094E7E2
:103F5000FCFF0000F0B55F4656464D464446F0B4BF
:103F600083B00E9D0C9C061C281C1F1C8B46924681
:103F7000FFF7E6FA21686268381C8B18A168E268CE
:103F800023608B18A360DD23F15CFEF7B7F9DC2317
:103F90008146F15C00282FD0A06800F0C7FC012307
:103FA0000093237CC0160190D90733D5227C0123CE
:103FB00013435A46311C237468465346FEF7AAF948
:103FC0006870201C8430FEF77FF9C3179B0F181808
:103FD000801028703221381CFEF790F901231A1C3A
:103FE0000240A87898431043A87003B03CBC9046A8
:103FF0009946A246AB46F0BD206800F097FC237CB2
:10400000C0164A4601900092D90718D4237C012299
:104010009343CEE7381CC821FEF770F90028C5D0BD
:10402000381CFEF751F90321FEF71EF9032319404E
:104030004B00A978062291431943A970B6E7381CB2
:10404000C821FEF75BF90028E0D0381CFEF73CF9E8
:104050000321FEF709F9032319404B00A978062232
:1040600091431943A970D1E738B5041C0D1C081CF5
:104070003221FEF743F9002815D0281CFEF724F959
:104080001B4B034004D50422013B5242134301332E
:10409000013306225A430F21023AA3780A407821BD
:1040A000D2008B4303E0A37878229343202213436A
:1040B000A370281CFEF71CF9002814D0281CFEF75A
:1040C00017F900280FD0281CFEF7FEF80321FEF791
:1040D000CBF803224B1CA178134006225B009143CE
:1040E0001943A17003E0A37806229343A37038BD5F
:1040F00003000080F0B557464E464546E0B482B016
:104100000C9C1D1C8246201C0A9E90468946FFF787
:1041100017FA281CFEF7ECF873880022B15E1AB279
:10412000C9008918421E5042424148008018301888
:10413000077933807780281C0197FEF7D9F8291C6E
:104140000090201CFFF790FF4A46434651466846C0
:10415000FEF7E0F864216070281CFEF7CFF8012319
:104160001A1C0240A07898431043A070281CFEF748
:10417000ABF8C30F181840102830207002B01CBCD8
:1041800090469946A246F0BDF0B54F464646C0B4AB
:1041900085B00E9E0C1C8146301C1F1C151CFFF7A1
:1041A000CFF9A37803211940884602295AD0032960
:1041B0004CD001291FD00C9B029600930D9B4846C2
:1041C0000193211C2A1C3B1CFEF76AFB73781833F1
:1041D000DBB27370381CFEF777F8C3179B0F181803
:1041E00080103070391C301CFFF73EFF05B00CBC4E
:1041F00090469946F0BD381CFEF774F83070381CB4
:10420000FEF762F8334B324A4004400C0021FEF7BF
:1042100037F80025C40F4A0A002312196B411A43CC
:10422000141C621E9441B27843469A431443B470FE
:10423000381CFEF749F84004400F03283CD00728FB
:1042400038D00C230128C4D01823C2E70C9B029657
:1042500000930D9B48460193211C2A1C3B1CFEF732
:1042600097FBB3E7381CFEF73DF83070381CFEF7BB
:104270002BF8184B164A4004400C0021FEF700F8BA
:1042800000254C0AC20F002312196B411A43141C5B
:10429000621E9441B27801239A431443B470381CCF
:1042A000FEF712F84004400F0728CDD80A4B8000D3
:1042B0001B589F4624238CE725238AE7222388E77F
:1042C000272386E71B2384E7162382E7C046C046E0
:1042D000F11976050000000020770000C046C046B6
:1042E000F0B5474680B482B00A9C1D1C8046201C55
:1042F000161C0F1CFFF724F9291C201CFFF7B4FE25
:10430000281CFDF7E1FFBB780F22F3181B7B13403D
:104310005A00D2189200D318F3181833197A4900AA
:10432000FDF7A2FF00233A1C019100934146331C84
:104330006846FDF7EFFF6070281CFDF7C5FF207091
:10434000281CFDF7D5FF01231A1C0240A0789843D2
:104350001043A07002B004BC9046F0BDF0B55F46BB
:1043600056464D464446F0B485B0109D0E9C071C41
:10437000281C8B4601921E1CFFF7E2F86168226838
:104380008B18A16823609B0F8B424FD0A360301C19
:10439000FDF79AFF8002E06022696369801A642158
:1043A0009A469046FDF70AFF5246801A64239946C2
:1043B0005843DC23F95C19318900FDF7FFFE4A46BA
:1043C0005044606150434044C3172061C0185840B6
:1043D0008015002303900293391C5A46019B02A8C2
:1043E000FDF798FFAB7806229343AB70311C6870E1
:1043F000281CFFF739FE201C8430FDF765FFC3172A
:104400009B0F1818801028703221301CFDF776FFA2
:1044100001231A1C0240A87898431043A87005B0E5
:104420003CBC90469946A246AB46F0BDE068B3E777
:10443000F0B557464E464546E0B482B00C9C0A9D06
:104440008246201C894690461E1CFFF779F86B793E
:10445000301C019300230093FDF736FF2070301CC1
:10446000FDF746FF01273B1C0340A0784A46B843AE
:104470001843A070434651466846FDF74BFF311C78
:104480006070201CFFF7F0FD687929790130FDF795
:10449000EBFE697102B01CBC90469946A246F0BD85
:1044A000F0B54F464646C0B483B00C9D0A9C061C2E
:1044B000281C1F1C89469046FFF742F86079217935
:1044C0000130FDF7D1FE194BC8B26071F35C834235
:1044D00001D800236371201CDC218430FDF70EFF1E
:1044E0006379021CE418A379501E824132332B7089
:1044F000381C002300920193FDF7FAFE0124AA78EC
:10450000231C0340101CA0431843391CA870281C0E
:10451000FFF7AAFD6846311C4A464346FDF7FAFEFE
:10452000687003B00CBC90469946F0BDA40400002E
:10453000F0B55F4656464D464446F0B40B788FB012
:104540000792079DD3184A781B79AA18127A061C7D
:104550005A43D14B0992C2540B788B46EB181A7907
:10456000CE4B0621C254031CDC331A7801331B786E
:10457000101C08401940D508DC08401049100028DC
:1045800009D097090F373A4003277A43C44FBA1826
:104590001018013800780A90002909D09A090F32C2
:1045A000134003225343BE4AD318591801390978DE
:1045B00064012C19BB4D0B91281C211CFDF782FEB8
:1045C000611C281DFDF77EFE211C281C08302031AF
:1045D000FDF778FE211C281C0C302131FDF772FEFE
:1045E0005846C37807990122CB181B7C0F2719095D
:1045F00011400C91590911403B40AB4A1F01BF18B3
:10460000AA4A22230D910024AA4691469846424682
:1046100062434A44009255466319301C5946079A32
:104620007D680434A847102CF1D1341CE434231CD9
:10463000BD68301C5946079AA8473B7B0025012BD3
:1046400003D00620804606961BE10695984D0698F5
:104650000999884200DB17E100228823A046994689
:10466000B246141C4A468F4E6243A3009B198F4EDC
:1046700050469219009203226243069E52190292FA
:1046800001965946079A3E680134B047042CE9D197
:104690000698032108400A990123C1404446564622
:1046A0000890844A194238D0A8788246C007C10FC2
:1046B000081C18408446907898438146687850706A
:1046C0002878107050464108032001409940059118
:1046D000604649460143894648460621884381464B
:1046E00050468846C1080F200140C90084460598FD
:1046F0008A46494601437820814350460843297A37
:104700009070C8076C4AC00F184081469078984353
:10471000EB7982465370AB7937E06979C8078A46EE
:10472000C10F081C18408446907898438146287928
:104730005070E8781070504641080320014049004D
:10474000059160464946014389464846062188430B
:10475000814650468846C1080F200140C900844662
:1047600005988A46494601437820814350460843CC
:10477000E97A9070C807504AC00F18408146907877
:104780009843AB7A824653706B7A137003204B08C0
:1047900003405B004846059353460343404683432A
:1047A0009946C90863461940059B4846034378204B
:1047B000C90083430B43937008990B9B0122CB40A4
:1047C000A17813420FD03B4B91439878C007C00F9C
:1047D0000143A1705A7862701A7822709978032286
:1047E000490811400EE0344B91439878C007C00F40
:1047F0000143A1705A78032062701A782270997868
:1048000049080140A2780620490082430A43A27069
:104810009A7878231A40A37878218B430C99134314
:10482000A370002903D1A37806229343A3700D9AA5
:10483000002A05D1A3787822934320221343A37042
:10484000069B03340133069301E74E46009601951B
:1048500002943E6806985946079A5346B0470C9E04
:10486000002E03D1A37840468343A3700D9E002EF3
:1048700005D1A3787822934320221343A3700135F6
:104880000334099EB542E0DB0FB03CBC904699462C
:10489000A246AB46F0BDC046A5040000A40400003B
:1048A00040770000B8FFFF1FC8FFFF1F94FDFF1FE8
:1048B00088FDFF1FB4FFFF1FC800002008B50020BF
:1048C00002F002F9014B01221A7008BD00FCFF1F23
:1048D00070B50630104B82009A180224155F00262E
:1048E000945FA54205DBC824A400548096242401CB
:1048F0001480820098180225445F084E985E89193A
:10490000001B4843C821C900FDF758FC0019C343E8
:10491000DB17184080B270BD7C060020E0FCFFFF72
:1049200000238360C36003617047C04630B5214CEB
:10493000430C1A199204921452431F4C12135443FD
:104940001E4DA4132C1B624380241214640185B0F5
:104950005B04A21A002B00DA524252048310009228
:10496000019300281EDBC0231B06C0184010144B07
:10497000029003934B005918CBB25A1ED2B2FD2AB3
:1049800001D80133DBB2091289006C466258FF205E
:104990001212C01A504301AA525812125343C0189F
:1049A00005B030BD074B181A4010E02302901B06DB
:1049B000DFE7C04600E0FFFFBC0D0000BC4D00007B
:1049C000FFFFFF1FFFFFFFBFF0B5474680B41E4E3D
:1049D0001E4C3378206A1033337002F055FB1C4DA7
:1049E0002B1F2F1C984618370AE002F093F8A06A94
:1049F00001F0F0FE0435A06A01F0F2FEBD4206D0DF
:104A00002B68606A002BF0DC02F08AF8EFE747467B
:104A1000104D4C370AE002F083F8A06A01F0DAFE8C
:104A20000135A06A01F0DCFEBD4207D02A78337858
:104A3000606A9A42EFD802F06DF8EEE7206A02F061
:104A400029FB04BC9046F0BD40FCFF1FF4FCFF1F97
:104A5000D80000201001002008B503480349FEF7E4
:104A60008BF9FFF7B1FF08BDD4000020CC00002077
:104A700008B50248FEF750F908BDC046D400002032
:104A800008B50349031C034A0348FEF7F3FA08BDBF
:104A9000CC00002090050020D400002008B5034978
:104AA000031C034A0348FEF759FA08BD900500208D
:104AB000CC000020D400002070B5802082B00023FC
:104AC0006A4640006946137002F05CF86A46137843
:104AD000142B11D080204000142102F027F80F4D34
:104AE0000024A01CFF30295D80B2013402F01EF8C2
:104AF000E82CF6D102B070BD084D00240026A01CA1
:104B0000FF306B4680B269461E7002F03BF86A4681
:104B100013782B550134E82CF1D1EBE790050020F8
:104B200070B582B00023684603708020694680001B
:104B300002F028F869460B78132B11D080208000F2
:104B4000132101F0F3FF254D0024254A295DA0180B
:104B500080B2013401F0EAFF202CF6D102B070BD22
:104B60001E4D002400261E4B6A46E01880B269469E
:104B7000167002F007F8684603782B550134202C94
:104B8000F1D11A216A5E18202B5E00219A4206DBC1
:104B9000C8239B006B8396231B012B8301211E23BB
:104BA000EA5E1C202B5E9A4215DBC8239B00EB8338
:104BB00096231B01AB8380208000132101F0B6FFF8
:104BC00000240749601880B2295D013401F0AEFF6E
:104BD000202CF6D1C2E70029C0D0ECE77C060020EB
:104BE0000102000070B582B000236A4604206946C5
:104BF000137001F0C7FF6A461378142B0FD00420FE
:104C0000142101F093FF104D0024601D295D80B236
:104C1000013401F08BFF042CF7D102B070BD0A4DB6
:104C200000240026601D6B4680B269461E7001F0AC
:104C3000A9FF6A4613782B550134042CF2D1281CA5
:104C4000FEF768FBE9E7C046CC00002070B5041C05
:104C50000D1C1E1C002A0EDB101C0D21FDF704FB91
:104C60000C2900D9F3E0834B89005B589F46FF2253
:104C7000814B1202DA64002E0EDB301C0D21FDF791
:104C8000F3FA0C2900D9B4E07C4B89005B589F46AD
:104C9000FF22794B12021A65002D0EDB281C0D2114
:104CA000FDF7E2FA0C2900D975E0754B89005B58D5
:104CB0009F46FF22704B12025A65002C0DDB201C10
:104CC0000D21FDF7D1FA0C2937D86E4B89005B58BE
:104CD0009F460122684B52429A6570BD6A4A664BF4
:104CE0009A65FAE7694A644B9A65F6E7684A624B47
:104CF0009A65F2E7674A604B9A65EEE7664A5E4B53
:104D00009A65EAE7654A5C4B9A65E6E7644A5A4B5E
:104D10009A65E2E7634A584B9A65DEE7FF22564BF5
:104D200012069A65D9E7FF22534B12049A65D4E71D
:104D3000FF22514B12029A65CFE74F4BFF229A6533
:104D4000CBE7514A4C4B5A65B7E7504A4A4B5A6534
:104D5000B3E74F4A484B5A65AFE74E4A464B5A6550
:104D6000ABE74D4A444B5A65A7E74C4A424B5A655C
:104D7000A3E74B4A404B5A659FE74A4A3E4B5A6568
:104D80009BE7FF223C4B12065A6596E7FF223A4BFF
:104D900012045A6591E7384BFF225A658DE73A4A6B
:104DA000354B1A6578E7394A334B1A6574E7384A48
:104DB000314B1A6570E7374A2F4B1A656CE7364A54
:104DC0002D4B1A6568E7354A2B4B1A6564E7344A60
:104DD000294B1A6560E7334A274B1A655CE7FF22C7
:104DE000254B12061A6557E7FF22234B12041A655A
:104DF00052E7214BFF221A654EE7234A1E4BDA6425
:104E000039E7224A1C4BDA6435E7214A1A4BDA6447
:104E100031E7204A184BDA642DE71F4A164BDA6453
:104E200029E71E4A144BDA6425E71D4A124BDA645F
:104E300021E71C4A104BDA641DE7FF220E4B1206D5
:104E4000DA6418E7FF220C4B1204DA6413E70A4B0A
:104E5000FF22DA640FE70122074B52425A652CE722
:104E60000122054B52421A6516E70122024B5242BB
:104E7000DA6400E788770000D4000020BC770000E7
:104E8000F07700002478000000FFFFFFFFFFFF0025
:104E9000FFFF00FFFF00FFFF0000FFFF00FFFF001C
:104EA000FFFF0000FF0000FF70B5C04CE023E35C93
:104EB000022B00D16AE05CD9032B32D0042B17D12E
:104EC0000023BB4A01256D42E36423656365A36546
:104ED000E423D25C281C2B1C291CFFF7B7FE5023AF
:104EE000E554FF225123E2545223E5545323E55461
:104EF000B04B181C103004E001321A7001338342A9
:104F00000ED0197C1A789142F6D8F7D2541EE4B22A
:104F1000A14200D3A1E1023A1A7001338342F0D1D9
:104F200070BD0023E36423656365A365A24B1B6822
:104F3000DA0545D401267642E225655D012D00D1D2
:104F40006AE1002D00D157E1022D00D174E1032D5B
:104F5000CED1E323E35C964A281CD3181B79321C7C
:104F6000013B184099101B1129402B40FFF76EFEA2
:104F7000BEE7012BBCD1914D0D212878FDF774F9C6
:104F80000C2947D88E4B89005B589F460023E36469
:104F900023656365A365E122A25C012A13D0002A80
:104FA0001DD0022AA4D1A360012350226360FF23F5
:104FB000A3545122A3545222A3545322A35497E73B
:104FC000E323E65CB8E7A26063604C22FF23A354AE
:104FD0004D22A3544E22A3544F22A35488E7764B6C
:104FE000A2601B686260DB0500D5CBE0C022120620
:104FF0009B185B1019161B0E1802C318714A18046F
:105000001B181360CB43DBB21902CB1819045B18D1
:1050100053606DE7FF23E36468780D21FDF724F901
:105020000C2900D987E0684B89005B589F46674B85
:105030002365A8780D21FDF717F90C2957D8644B83
:1050400089005B589F46614B6365E8780D21FDF749
:105050000BF90C2927D85F4B89005B589F465B4BA7
:10506000A36545E75C4BA36542E75C4BA3653FE75F
:105070005B4BA3653CE75B4BA36539E75A4BA365E4
:1050800036E75A4BA36533E7594BA36530E7FF2357
:105090001B06A3652CE7FF231B04A36528E7FF235A
:1050A0001B02A36524E7FF23A36521E74A4B636541
:1050B000CBE74A4B6365C8E7494B6365C5E7494B96
:1050C0006365C2E7484B6365BFE7484B6365BCE770
:1050D000474B6365B9E7FF231B066365B5E7FF230D
:1050E0001B046365B1E7FF231B026365ADE7FF2384
:1050F0006365AAE7384B23659BE7384B236598E740
:10510000374B236595E7374B236592E7364B23658D
:105110008FE7364B23658CE7354B236589E7FF2303
:105120001B06236585E7FF231B04236581E7FF2317
:105130001B0223657DE7FF2323657AE7FF231B0618
:10514000E36469E7FF231B04E36465E7FF231B02B5
:10515000E36461E71D4BE3645EE71F4BE3645BE7D9
:105160001E4BE36458E71E4BE36455E71D4BE364B5
:1051700052E71D4BE3644FE71C4BE3644CE71C4BC9
:10518000E36449E71B4AD31A5B1033E701235B4210
:10519000E36441E701235B4223654AE701235B4265
:1051A000636552E701235B42A365A1E6D4000020BA
:1051B00090050020100100203CFCFF1FCC000020C7
:1051C00058780000200100208C78000000FFFFFFCD
:1051D000C0780000F4780000FFFFFF00FFFF00FF31
:1051E000FF00FFFF0000FFFF00FFFF00FFFF0000C8
:1051F000FF0000FFFFFFFFBFE323E35C184AD31863
:10520000187C03231A1C011102408010194003402E
:10521000301CFFF71BFD6BE6E323E35C104AD31859
:10522000197B03231A1C08110A40891018400B40EF
:10523000311CFFF70BFD5BE6E323E35C084AD31860
:105240001A7A0323013A181C1040911012111940C8
:105250001A40331CFFF7FAFC4AE61C704EE6C046C3
:1052600090050020F0B5CF4B47461A6880B4013254
:1052700000201A6002F086F8CB4B1A68002800D193
:10528000D6E001321A60012A00DCD6E01E2A00DCDA
:10529000DBE019691E2900D117E21F221A600022E3
:1052A0005A601F220021D9601A61002002F0B6F86E
:1052B000BE4B1A68002800D1DEE001321A60012AD4
:1052C00000DCDEE01E2A00DC00E11F691E2F00D199
:1052D000F4E11F221A6000225A601F220021D960C7
:1052E0001A61002002F074F8B14B1A68002800D14E
:1052F000DCE001321A60012A00DCDCE01E2A00DC5E
:1053000068E11A691E2A00D1D1E11F221A60002229
:105310005A601F220021D9601A61002002F0A6F80D
:10532000A44B1A68002800D1B3E001321A60012AA8
:1053300000DCB3E01E2A00DCD8E01F691E2F00D17C
:10534000AEE11F221A6000225A601F220021D9609C
:105350001A61994CE023E35C022B00D1DBE0022BC5
:1053600000D947E1012B5BD1201C9449FDF7A8FD32
:105370002378D90700D5AFE1A36F002B07DDE26EDC
:10538000666F013B9519E566A367002B01D1256F78
:10539000E5668B4E3378002B12D000202D0101F0F2
:1053A0008DFB2B0DB0252D021D4386492B0A0B705A
:1053B00000233370844B022218684D7001F03EFFC9
:1053C0006368002B00DCC0E1013B636000232362C3
:1053D000A368002B00DCB2E1013BA3600023636201
:1053E000E368002B00DCA4E1013BE3600023A3623F
:1053F0002369002B00DC96E1013B23610023E3627B
:105400006369002B00DC88E1013B636100232363B7
:10541000A369002B00DC7AE1013BA36100236363F5
:105420002378DF074FD5FFF7CFFA04BC9046F0BDD5
:10543000013A1A60012A00DD28E71869022800D124
:1054400004E101221A605A6003E05D68002D00DC6F
:1054500028E7D9681A615D4A0131D960914200DCC0
:1054600023E7FA22D2000020DA6001F0D7FF4F4B89
:105470001A68002800D020E7013A1A60012A00DDEE
:1054800020E71E69022E00D1D2E001221A605A6084
:1054900020E0013A1A60012A00DD4BE71E69022E66
:1054A00000D1CCE001221A605A6023E0013A1A6070
:1054B000012A00DD22E71969022900D1CDE001228D
:1054C0001A605A608AE0FFF7EFFCACE758680028E2
:1054D00000DC03E7D9681A613C4A0131D960914286
:1054E00000DCFEE6FA22D200DA60FAE6586800280C
:1054F00000DC2BE7D9681A61344A0131D960914246
:1055000000DC26E7FA22D2002B4CDA60E023E35CD1
:10551000022B00D023E7E123E35C581E42425041B6
:10552000DE22A25C632A69D80630294982008A18E3
:105530000227D65F0027D55FAE4205DBC825AD0048
:10554000558096252D0115808000091802200A5EDD
:10555000D543ED17154022780132D2B22270012BCB
:1055600000D19AE0023B59424B415B4200271D406B
:105570000126164078D1124F3B78002BA3D0002093
:105580002D0501F09BFA2B0DB0252D021D430D4971
:105590002B0A0B700C4B022218684D703E7001F004
:1055A0004DFE3DE73CFCFF1F58FCFF1F44FCFF1F66
:1055B00028FCFF1F6CFCFF1FD4000020CC00002043
:1055C00000FCFF1FD0000020F4FCFF1FCF070000ED
:1055D0007C0600205D68002D00DC9BE6D9681A611E
:1055E0007F4A0131D960914200DC96E6FA22D2006E
:1055F000DA6092E6042B00D912E7B5E69C2A00D8BF
:10560000A9E00630774982008A180225565F0027F4
:10561000D55FAE4205DBC825AD00558096252D012E
:10562000158080000D5EEA43D2171540227893E77B
:105630001A7A0F218A4301210A431A7225E71A7A3E
:105640000F218A4301210A431A722BE71A7A0F218C
:105650008A4301210A431A72F3E61A7A0F218A4318
:1056600001210A431A722AE75F4D2B78002B00D1E3
:10567000D9E600203F0501F021FA3B0DC027BF010C
:105680001F435A493B0A0B7000232B70584B0222D0
:1056900018684F7001F0D2FDC2E62F1C002567E7A5
:1056A0001A7A0F210A4010210A431A7249E61A7A1F
:1056B0000F210A4010210A431A7226E61A7A0F2196
:1056C0000A4010210A431A7203E61A7A0F210A408F
:1056D00010210A431A72E0E5434D6823E65A2B78FD
:1056E000002B00D16CE60020360501F0E7F9330D00
:1056F000C026B6011E433D49330A0B7000232B70B0
:105700003B4B022218684E7001F098FD58E6626B20
:10571000002A55DD013A626382E6226B002A4CDDE5
:10572000013A226374E6E26A002A55DD013AE26238
:1057300066E6A26A002A4CDD013AA26258E6626A75
:10574000002A43DD013A62624AE6226A002A3ADD13
:10575000013A22623CE622780630D50617D5214967
:1057600085004D190227EE5FB0460027EE5FB04579
:1057700005DBC826B6006E80962636012E80800096
:1057800009180220095ECD43ED170D40E4E61549E6
:1057900085004D190227EE5FB0460027EE5FB04549
:1057A00005DBC826B6006E80962636012E80800066
:1057B0000D5EE943C9170D40CEE65B42636127E603
:1057C0005B42A3612CE65B42636001E65B42A3603F
:1057D00006E65B42E3600BE65B42236110E6C046EF
:1057E000CF0700007C06002000FCFF1FD000002037
:1057F000F4FCFF1F70B51C4D1C49061C281CFDF74E
:1058000099FD80204000142101F090F90024A01C93
:10581000FF30295D80B2013401F088F9E82CF6D11F
:10582000012E00D070BD124D80235B042B606B6095
:10583000AB60EB602B616B61C822962392001B0169
:1058400080206A832B83EA83AB838000132101F0DD
:105850006DF90024074B295DE01880B2013401F096
:1058600065F9202CF6D1DDE790050020CC00002062
:105870007C06002001020000F0B54E465746454622
:10588000E0B4CB4EE223F35C012B00D10CE1002B02
:1058900000D1D2E0022B00D176E0032B00D0C9E08A
:1058A000C44A0024117AA0460807000F012800D13D
:1058B00053E1C149D0680027884201DDD760012744
:1058C000BE4A0025117A0807000F012800D139E1EE
:1058D000BB4A0024117A0807000F012800D110E10B
:1058E000B84A117A0807000F012800D173E000229E
:1058F0000020111C002D08D0FC251540AA46511C83
:10590000032529408C4651466144002C07D0941051
:1059100001340325F3212C401140A400091900286B
:1059200007D0101101300324CF2120401140000185
:10593000091891421ED0A44D012B00D132E1002B59
:1059400000D12AE1022B00D121E1032B00D1D2E0CA
:105950009E4B8020012240001421F25401F0E6F811
:105960000024A01CFF30295D80B2013401F0DEF874
:10597000E82CF6D14046012843D0012F31D01CBC81
:1059800090469946A246F0BD8E4A0024117AA04660
:105990000807000F012800D1D9E08749D068002707
:1059A000884201DDD7600127844A0025117A080763
:1059B000000F012800D1E5E0814A0024117A080790
:1059C000000F012800D1D8E07A4A117A0807000FA9
:1059D000012800D08BE70F208143117201200022A3
:1059E00087E7E023F754E223F35C002B00D1F1E0DA
:1059F000012BC4D1764B03219A7803320A409A7066
:105A0000BDE7E323F25C032101320A40F254E223B2
:105A1000F35C012B00D1E7E0002B00D1AAE0022BC0
:105A200000D1DEE0032B01D1694B1A70674B0122D4
:105A3000F254A2E7002200275BE7604A0024117AB3
:105A4000A0460807000F01286BD05B49D0680027EB
:105A5000884201DDD76001275649E322B25C5A4DE6
:105A6000087AAD1804072A7C240F0025012C64D085
:105A70005449087A89460407240FA4466146002445
:105A8000012954D04E48017A82468C460907090FF5
:105A90000020012900D02CE70F2061468143081C1B
:105AA00051460872012024E7454A0024117AA04695
:105AB0000807000F012829D03F49D06800278842F5
:105AC00001DDD76001273B49E322B25C3E4D087AF5
:105AD000AD1804072A7B240F0025012C1CD039495E
:105AE000087A89460407240FA44661460024012948
:105AF00039D03248C7E7E323F35C0131EB18197161
:105B000026E70F20814311720124E9E60F2081432B
:105B100001251172A846CFE70F24A0430872012582
:105B2000DDE70F20814301251172A8468DE70F2480
:105B3000A0434C4620720124A4E70F24A04308721E
:105B4000012595E70F20814311720125C0E60F2042
:105B5000814301251172A8461FE70F2081430125CB
:105B60001172A846A5E60F24A0434C4620720124DA
:105B7000124888E7164BDA7058E70F2081431172FC
:105B8000012421E70F2081431172012514E7E3234B
:105B9000F35C0131EB181972DAE6E323F35CEB18DE
:105BA0001974D5E6E323F35CEB181973D0E6C0460D
:105BB000D40000206CFCFF1FCF07000058FCFF1F23
:105BC00044FCFF1F28FCFF1F90050020A6040000D6
:105BD000CC000020064B0321DA7803320A40DA7049
:105BE000CDE6034B5A7021E7014B9A701EE7C04681
:105BF000CC000020514A70B5117A0B071B0FD8B2A8
:105C0000012800D16DE04E4EE123F35C012B38D02A
:105C1000022B16D1DC21715CDD228039C817800F80
:105C2000B25C4118C820474D891080000918803A9D
:105C30006983D117890F8A18962192100901521889
:105C40002A83414A117A0807000F012836D03F49BC
:105C5000D068884203DD0021D160022B5AD03C4B32
:105C6000197A0A07120FD0B2012834D0374AD968FE
:105C7000914205DD0022DA60E123F15C012937D091
:105C800070BDDC21715CDD228039C817800FB25CE9
:105C90004118C8202B4D800089100918803AE983EB
:105CA000D117890F8A189621090192105218AA83D8
:105CB000254A117A0807000F0128C8D10F239943FC
:105CC0001172E1230222F254214B197A0A07120FB2
:105CD000D0B20128CAD10F2081431972E123F254B6
:105CE000CEE70F20814311721549E0228B54C7E79C
:105CF000802080001321F25400F018FF114D002481
:105D0000144B295DE01880B2013400F00FFF202C05
:105D1000F6D1B5E7E1238020F1548000132100F093
:105D200005FF084D00240B4A295DA01880B20134FC
:105D300000F0FCFE202CF6D191E7C04658FCFF1F76
:105D4000D40000207C06002028FCFF1FCF070000A5
:105D50006CFCFF1F010200005B4B30B5197A0A078B
:105D6000120FD0B2012800D19FE0584AD968914261
:105D700000DD71E0564B197A0A07120FD0B20128E4
:105D800000D183E0514AD96891423DDC514B197AE8
:105D90000A07120FD0B201284FD04C4AD96891425D
:105DA0001ADC4D4B197A0A07120FD0B201281CD009
:105DB000464AD96891420EDD0022DA60474B032142
:105DC0001A7803320A401A70454B464A0121995409
:105DD0000421E022995430BD0022DA603E4B197A4A
:105DE0000A07120FD0B20128E2D10F2081431972A5
:105DF0003B4B3D4903245A54384908780130204030
:105E0000087038495A54E6E70022DA60334B03221F
:105E10009978344C033111409970314B0120185559
:105E2000E2241855E3201954E0215A54294B197AD9
:105E30000A07120FD0B20128AFD10F208143197287
:105E4000274B294903245A542449487801302040DB
:105E5000487024495A54A4E70020D8601F4B0322FD
:105E6000D978204C03311140D9701D4B01251D55A7
