:100000000C942E010C9456010C9456010C9456013C
:100010000C9456010C9456010C9456010C94560104
:100020000C9456010C9456010C94A5060C941407DC
:100030000C9456010C9456010C9456010C945601E4
:100040000C9456010C9456010C9456010C945601D4
:100050000C9456010C9456010C9456010C944609CC
:100060000C9456010C9456010C9456010C945601B4
:100070000C9456010C9456010C9456010C945601A4
:100080000C9456010C9456010C9456010C94560194
:100090000C9456010C9456010C9456010C94560184
:1000A0000C9456010C9456010C945601000000006B
:1000B000000000002A2B28000000000000000000C3
:1000C0000000000000000000000000002C9EB4A012
:1000D000A1A2A434A6A7A5AE362D3738271E1F200F
:1000E000212223242526B333B62EB7B89F848586D4
:1000F0008788898A8B8C8D8E8F9091929394959618
:100100009798999A9B9C9D2F3130A3AD3504050695
:100110000708090A0B0C0D0E0F10111213141516F7
:100120001718191A1B1C1DAFB1B0B5000000000054
:10013000240027002A002D003000080B00020202D4
:100140000100090400000102020000052400100162
:100150000524010101042402060524060001070507
:10016000810310004009040100020A000000070595
:100170000202400000070583024000000403090456
:1001800012010002EF02014041233680000101020A
:10019000030141726475696E6F204C4C43004172DB
:1001A0006475696E6F204C656F6E6172646F0000DC
:1001B0000000002300260029002C002F0000000072
:1001C0000200090F0000030401000C000000000001
:1001D000000000000000000000000000050109060A
:1001E000A1018502050719E029E715002501750120
:1001F000950881029501750881039506750815001B
:1002000025730507190029738100C0040802011035
:10021000408040102040804080080204018040203F
:100220001002011080102040402000000000250036
:1002300028002B002E0031000404040404030405EC
:100240000202020204030202020206060606060673
:100250000404020202040400C309E20D11241FBEBB
:10026000CFEFDAE0DEBFCDBF12E0A0E0B1E0E4EA1C
:10027000FEE102C005900D92A034B107D9F724E049
:10028000A0E4B2E001C01D92A139B207E1F711E08C
:10029000CDE2D1E004C02197FE010E94060ECC32CF
:1002A000D107C9F70E94B60A0C94450F0C940000C0
:1002B000CF93DF93FC01818190914804482F490F2F
:1002C0005527551F483051059CF5A281B3811097E1
:1002D00009F524E434E0338322832081209346040B
:1002E0008093470480914904820F808320914A04BF
:1002F000A22FB0914B048A2F821B8917E8F48181C9
:100300003D91C82FD0E0C45FDE4F38838F5F81837B
:10031000F2CFD90118962D913C91199721153105ED
:10032000C1F724E434E019963C932E931897D5CF67
:1003300080E0DF91CF91089581E0FBCFFC018091B7
:10034000F303882311F13FB7F89482E08093E9002A
:100350002091F200822F90E01816190614F481E023
:1003600090E0882339F0289844E64093F2034091C6
:10037000F1004083222339F02091F200211103C0C3
:100380002BE62093E8003FBF08958FEF9FEF08957D
:1003900040915302509154022091510230915202E7
:1003A00042175307B4F49091E8009570E1F39091EF
:1003B000E80092FD19C08093F10080915302909162
:1003C000540201968F739927892B19F48EEF80932D
:1003D000E800809153029091540201969093540248
:1003E0008093530281E0089580E00895DF92EF92B8
:1003F000FF920F931F93CF93DF93D82E8A01EB01C7
:100400007B01E40EF51ECE15DF0559F0D7FE12C0B4
:10041000FE0184910E94C80121968111F4CF0FEF53
:100420001FEFC801DF91CF911F910F91FF90EF90C7
:10043000DF9008958881EECF2FB7F894877080936E
:10044000E9009091E800892F807295FF04C0909197
:10045000F20080E4891B2FBF0895615030F0209195
:10046000F100FC0120830196F8CF289884E6809360
:10047000F20308958091490281110DC082E08093BA
:10048000450284E08093460210924802109247028F
:1004900081E08093490285E492E008950F931F93D1
:1004A000CF93DF931F92CDB7DEB782E0898342E41A
:1004B00050E06AE371E080E80E94F6010E943A028F
:1004C000DC0112960D911C910115110589F0D801DE
:1004D000ED91FC910280F381E02DBE016F5F7F4FB3
:1004E000C801099597FD04C0F80100851185ECCF7E
:1004F00089810F90DF91CF911F910F910895CF9334
:10050000DF931F92CDB7DEB76983DC01ED91FC91DB
:100510000280F381E02D41E050E0BE016F5F7F4F2C
:1005200009950F90DF91CF91089583E08093E900C2
:100530008091F200882319F08AE38093E8000895FF
:1005400083E00E941C0290E00895CF93DF931F92F6
:10055000CDB7DEB7FC018485958597FD08C02FEFE8
:100560003FEF358724870F90DF91CF910895CE011B
:1005700001960E949E01019719F4898190E0F3CFC2
:100580008FEF9FEFF0CF0F931F93CF93DF931F92C7
:10059000CDB7DEB78C01FC018485958597FF0BC034
:1005A000CE0101960E949E01019771F4898190E02D
:1005B000F80195878487F801848595850F90DF91F0
:1005C000CF911F910F9108958FEF9FEFF1CFFC0115
:1005D0008485958597FD0BC09FB7F89482E0809342
:1005E000E9008091F2009FBF90E0019608959FB7C7
:1005F000F89482E08093E9008091F2009FBF90E040
:10060000089581508F3008F047C0E82FF0E0E55F93
:10061000FC4F0C94060E28032C031A03200324031A
:100620004C034C034C032F03350339033D034303B1
:100630004C034703809180008F778093800008955A
:10064000809180008F7DF9CF80918000877FF5CFEA
:1006500084B58F7784BD089584B58F7DFBCF80915D
:1006600090008F77809390000895809190008F7D07
:10067000F9CF80919000877FF5CF8091C0008F7770
:100680008093C00008958091C0008F7DF9CF809144
:10069000C200877F8093C20008951F93CF93DF939A
:1006A000282F30E0F901E354FE4F8491F901E55F12
:1006B000FD4FD491F901E85CFD4FC491CC23A9F022
:1006C000162F81110E940103EC2FF0E0EE0FFF1FA7
:1006D000E65DFD4FA591B4918FB7F894EC9111119F
:1006E00008C0D095DE23DC938FBFDF91CF911F919F
:1006F0000895DE2BF8CFCF93DF9390E0FC01E55F08
:10070000FD4F2491885C9D4FFC0184918823C9F0A2
:1007100090E0880F991FFC01E45DFE4FA591B49114
:10072000FC01E65DFD4FC591D49161110DC09FB7ED
:10073000F8948C91209582238C9388812823288398
:100740009FBFDF91CF910895623051F49FB7F89425
:100750003C91822F809583238C93E8812E2BEFCFC1
:100760008FB7F894EC912E2B2C938FBFEACF3FB725
:10077000F8948091410290914202A0914302B0917D
:10078000440226B5A89B05C02F3F19F00196A11D74
:10079000B11D3FBFBA2FA92F982F8827BC01CD01CB
:1007A000620F711D811D911D42E0660F771F881F2A
:1007B000991F4A95D1F70895CF92DF92EF92FF9259
:1007C0000E94B7036B017C010E94B7036C197D097D
:1007D0008E099F09683E734081059105A8F3FF903B
:1007E000EF90DF90CF9008957F928F929F92AF927B
:1007F000BF92CF92DF92EF92FF920F931F93CF930E
:10080000DF93C82E8B017A018091F303811110C010
:100810008FEF9FEFDF91CF911F910F91FF90EF909E
:10082000DF90CF90BF90AF909F908F907F90089572
:100830008091570280FF05C08091E0008260809324
:10084000E000CE2DDF2DD12C8AEFB82E8C2D8770B5
:10085000982E8C2D8072882E8C2D8074782E9AE3A1
:10086000A92E209719F4DD2009F44EC08C2D0E948A
:100870001C02811106C0BA94BB2051F20E94DC0315
:10088000F0CF8C171D0611F00CF08C2F9FB7F89449
:100890009092E9002091E80025FD02C09FBFE1CFC2
:1008A000282F30E0C21BD30B882029F08150A0F004
:1008B0001092F100FBCFF801C7FC0AC0815050F044
:1008C00041914093F100FACF44914093F100319669
:1008D0008150D0F7020F131FDD2021F0A092E80015
:1008E000D12CDCCF8091E80085FD07C0A092E80004
:1008F000DD24D394209791F2F3CF209779F67720D7
:1009000069F2A092E800CACF5D9884E6809356020F
:10091000C70180CFEF92FF921F93CF93DF931F9277
:10092000CDB7DEB77C018091550481112AC011E05A
:1009300010934804109349048EE494E090934B0480
:1009400080934A0410924D0410924C048CE292E081
:1009500090934504809344041092500410924F04E5
:1009600010925204109251041093530410935404A3
:1009700081EC80934E040E943A020E945801109329
:10098000550482E0898341E050E0BE016F5F7F4FF4
:10099000809147040E94F40397FD08C080914704AA
:1009A00048E050E0B70180640E94F4030F90DF91AB
:1009B000CF911F91FF90EF900895CF93DF93EC01BB
:1009C00080910B01882331F083E00E94F403181614
:1009D000190634F081E090E09B838A8380E090E008
:1009E000DF91CF910895DC01FB0112962C911297B3
:1009F000848195812817190641F491818081813A7B
:100A000031F49D7F81E0913009F080E008958132DA
:100A1000E1F79B3029F482811F968C9381E0089541
:100A20009A3099F7828150968C93F8CFDC01FB01C4
:100A300088E4808389E4818384E482831D969C9189
:100A40001D979F709F5B93831D968D919C9124E0D1
:100A5000969587952A95E1F78F708F5B848385E063
:100A60000895EF92FF920F931F93CF93DF93FB01B3
:100A70002081213871F52381223259F5DC0112964B
:100A80004C91248135814217130619F5EC010B8531
:100A90001C85F12CE12C0115110589F0F801448128
:100AA00055816281738180E80E94F6018F3F98072B
:100AB00049F0E80EF91ED8010D911C91ECCF81E0B0
:100AC0008F87C701DF91CF911F910F91FF90EF901A
:100AD000089590E080E0F6CFCF93DF93CDB7DEB7F7
:100AE00069970FB6F894DEBF0FBECDBFFC01DB01E6
:100AF0008C918F5F8C939E012D5F3F4F8DE0D901CC
:100B00001D928A95E9F729E0298384E08A8391E0A0
:100B10009D8383E08E832A8721E22B879C879D8794
:100B20009F8722E2288B27E02B8B25E02C8B8E8B56
:100B300020E430E0388F2F8B998F82818B839585CD
:100B40008685998B8A8B838180688D8B49E150E003
:100B5000BE016F5F7F4F80E00E94F60169960FB67D
:100B6000F894DEBF0FBECDBFDF91CF910895CF9235
:100B7000DF92EF92FF920F931F93CF93DF936C015D
:100B8000EB017B01E40EF51E10E000E0CE15DF0561
:100B900081F069916D30D1F3D601ED91FC91019016
:100BA000F081E02DC6010995892B19F00F5F1F4FC9
:100BB000EDCFC801DF91CF911F910F91FF90EF9082
:100BC000DF90CF900895DC016838A0F06858FD01EF
:100BD00086E0662321F09681961301C0168281502B
:100BE00031968111F6CFCD0104960E948A0481E0EE
:100BF00090E00895E62FF0E067FF12C0E058F10999
:100C000081E090E001C0880FEA95EAF7809514969C
:100C10009C911497892314968C93149760E0D7CFF6
:100C2000E455FF4F6491662359F067FFD0CF1496C7
:100C30008C9114978D7F14968C9314976F77C7CFF0
:100C400090E080E00895DC01683888F168581696D5
:100C50008C911697861721F117968C911797861706
:100C6000F9F018968C9118978617D1F019968C91F7
:100C700019978617A9F01A968C911A97861781F002
:100C80001B968C911B97861759F0FD01369690E0C4
:100C900080E02191211139C08A0F9B1FFC016683DE
:100CA000CD0104960E948A0481E090E00895E62F29
:100CB000F0E067FF11C0E058F10921E030E001C029
:100CC000220FEA95EAF714968C911497822B1496CA
:100CD0008C93149760E0BBCFE455FF4F6491611192
:100CE00009C081E090E013969C938E93129790E058
:100CF00080E0089567FFABCF14968C9114978260C3
:100D000014968C9314976F77A2CF01968630910535
:100D100009F0BFCFE6CFEF92FF921F93CF93DF93FF
:100D2000EC01162F0E9423067C01612FCE010E9448
:100D3000E305C7019927DF91CF911F91FF90EF90B5
:100D40000895089590E080E008951F920F920FB6E5
:100D50000F9211248F939F938091E1009091E10075
:100D6000937F9093E10083FF0FC01092E90091E020
:100D70009093EB001092EC0092E39093ED001092B0
:100D8000F30398E09093F00082FF22C093E09093E9
:100D9000E9009091F200992319F09AE39093E8000A
:100DA00090915602992341F0909156029150909360
:100DB0005602911101C05D9A9091F203992341F07E
:100DC0009091F20391509093F203911101C0289AEF
:100DD00084FF18C08091E2008E7E81608093E200E3
:100DE0008091E1008F7E8093E100809157028E7E9A
:100DF0008061809357029F918F910F900FBE0F904B
:100E00001F90189580FFF7CF8091E2008E7E806161
:100E10008093E2008091E1008E7E8093E1008091DA
:100E200057028E7E8160E5CF1F920F920FB60F9210
:100E30001124CF92DF92EF92FF920F931F932F9383
:100E40003F934F935F936F937F938F939F93AF9352
:100E5000BF93EF93FF93CF93DF93CDB7DEB76C973C
:100E6000DEBFCDBF1092E9008091E80083FF25C06E
:100E700068E0CE0145960E942D0282EF8093E80043
:100E80008D8987FF39C09091E80090FFFCCF982FA3
:100E9000907609F034C19E894F89588D2F89F88C3E
:100EA000911131C0803861F5809158028093F10032
:100EB0001092F1008EEF8093E8006C960FB6F894D4
:100EC000DEBF0FBECDBFDF91CF91FF91EF91BF91FC
:100ED000AF919F918F917F916F915F914F913F91D2
:100EE0002F911F910F91FF90EF90DF90CF900F9077
:100EF0000FBE0F901F9018959EEF9093E800C7CFFC
:100F00001092F100D5CF913059F48111D3CF4130F7
:100F1000510581F6809158028D7F80935802CACF87
:100F2000933049F48111C6CF4130510519F68091B3
:100F300058028260F2CF953041F48091E80080FF42
:100F4000FCCF20682093E300B5CF963009F0A9C00C
:100F50000B8D1C8D22E01092E90010925402109229
:100F60005302F2122EC010925202109251020E94AD
:100F70004E021F8299E09983FA8291E09E8390EA63
:100F800098879AEF99872091530230915402275FF6
:100F90003F4F3C832B838D831092E90010925402C3
:100FA00010925302109352020093510249E050E014
:100FB000BE016F5F7F4F80E00E94F6010E944E02EB
:100FC00079CF10935202009351020E943A02DC0141
:100FD00012960D911C910115110509F451C1D8010A
:100FE000ED91FC910480F581E02DBE016B5E7F4F99
:100FF000C8010995009709F03EC1F80100851185E7
:10100000EACFF3E0FF120EC08F89882309F440C0B5
:10101000823061F440E860E18EE991E00E9490093D
:10102000811148CF81E28093EB0047CF813029F4D2
:1010300040E86BE082E991E0F1CF833099F70E94BC
:101040003A02DC011296ED90FC908E010F5F1F4F6B
:101050006801E114F10479F0D701ED91FC9106806B
:10106000F781E02DB801C7010995080F111DF7019F
:10107000E084F184EECFD8011C92F60101900020AB
:10108000E9F73197BF016C197D0940E0C601C6CF71
:101090006CE771E0FB01449150E080E80E94F601AA
:1010A00009CF973009F4BECF983021F481E08093C6
:1010B000F10000CF993009F0FDCE837009F0B2CF76
:1010C000EDE0F1E081E031E096E32191222371F03F
:1010D0008093E9003093EB00DF0111972C9120936E
:1010E000EC009093ED008F5F873079F78EE7809367
:1010F000EA001092EA008F898093F303DBCE8B8D98
:101100009C8D1092E9001092540210925302909319
:10111000520280935102898D811192C08E899D89DE
:10112000913A49F4813209F07DCF47E050E064E024
:1011300071E080E0B3CF913209F074CF833269F46B
:101140008F89988DB0E0A0E0809300019093010119
:10115000A0930201B0930301ADCE803269F4809177
:10116000E80082FFFCCF67E084E091E00E942D025E
:101170008BEF8093E8009ECE823209F09BCE8F8960
:1011800080930B01EEEFFFE7859194918B3F9C4D8F
:1011900051F1E0E0F8E08091040190910501A09107
:1011A0000601B0910701803B9440A105B105F1F41F
:1011B00080910B0180FD1AC0EE3F8AE0F80789F5A7
:1011C00087E797E791838083809160008093550241
:1011D00088E19BE00FB6F894A895809360000FBE5D
:1011E0009093600067CEEEEFFAE0D5CF80819181D9
:1011F0008737974709F05ECEA89580916000886197
:10120000809360008091550280936000EE3F2AE059
:10121000F20789F08091FE0A9091FF0A9183808302
:1012200049CE808191818737980751F29093FF0AC8
:101230008093FE0AC5CF1092FF0A1092FE0A3ACEA2
:101240000E943A02DC0112960D911C9101151105C4
:1012500009F4E8CED801ED91FC910190F081E02DE8
:10126000BE016B5E7F4FC8010995811123CEF80145
:1012700000851185EBCF181619060CF41BCED2CEC3
:10128000F1E0FF12BECE60E871E004CF1F920F9232
:101290000FB60F9211242F933F938F939F93AF9389
:1012A000BF938091590290915A02A0915B02B09134
:1012B0005C023091400223E0230F2D3758F5019650
:1012C000A11DB11D209340028093590290935A02B0
:1012D000A0935B02B0935C02809141029091420224
:1012E000A0914302B09144020196A11DB11D8093CB
:1012F000410290934202A0934302B0934402BF91F3
:10130000AF919F918F913F912F910F900FBE0F90B2
:101310001F90189526E8230F0296A11DB11DD2CF6C
:10132000EF92FF920F931F93CF93DF93F82E192F15
:10133000E62E042F81E0860F880F0E94C80183E00B
:101340000E94C801CF2DD12FEC0EFD2EF11CCE1521
:10135000DF05B9F007FF13C0FE0184910E94C801A8
:10136000182F80E00E94C801812321968111EFCFC0
:10137000DF91CF911F910F91FF90EF900895888199
:10138000EDCF81E0F5CFCF931092F7031092F603E3
:1013900088EE93E0A0E0B0E08093F8039093F90327
:1013A000A093FA03B093FB038AE192E09093F503D4
:1013B0008093F4038FEF9FEF9093010480930004D8
:1013C00010926E0410926D0488E392E090936C0486
:1013D00080936B0480916304811113C010925E04AA
:1013E00010925D048CED91E09093600480935F0413
:1013F0008FE290E0909362048093610481E0809397
:1014000063048091550481112AC0C1E0C09348044F
:10141000C09349048EE494E090934B0480934A0473
:1014200010924D0410924C048CE292E0909345048B
:10143000809344041092500410924F04109252046E
:1014400010925104C0935304C093540481EC8093D0
:101450004E040E943A020E945801C0935504E09144
:101460004F04F0915004309709F06EC08DE594E080
:101470009093500480934F048091510490915204B2
:101480002091610430916204820F931F9093520463
:10149000809351041092780410927F041092860475
:1014A00010928704109288041092890481E080933E
:1014B0008504809382041092830492E090938404C4
:1014C0008093770484E290E090937C0480937B0483
:1014D0000E94200E9093810480938004009709F469
:1014E0003CC024E2FC0111922A95E9F78CE090E0DF
:1014F00090937A048093790484E190E090937E0441
:1015000080937D0480917804882341F061E084E138
:101510000E947B0360E084E10E944D03ECE4F2E072
:10152000E491F0E0EE0FFF1FE65DFD4F8591949191
:1015300090938B0480938A04EFE1F2E0E491E093CE
:101540008C04CF910895FC01808191810097D9F797
:101550008DE594E0918380838FCF10927C0410926C
:101560007B0410927A0410927904C6CFCF93DF9354
:10157000CDB7DEB764970FB6F894DEBF0FBECDBF10
:10158000789484B5826084BD84B5816084BD85B55E
:10159000826085BD85B5816085BD80916E0081606A
:1015A00080936E0010928100809181008260809310
:1015B0008100809181008160809381008091800012
:1015C000816080938000809191008260809391007F
:1015D0008091910081608093910080919000816062
:1015E000809390008091C10084608093C1008091BD
:1015F000C10082608093C1008091C10081608093AE
:10160000C1008091C30081608093C3008091C000BD
:1016100082608093C0008091C20081608093C2008C
:1016200080917A00846080937A0080917A00826051
:1016300080937A0080917A00816080937A00809113
:101640007A00806880937A001092F3031092580217
:10165000109257028091D70081608093D70080EA72
:101660008093D80089B5806189BD89B5826089BDC4
:1016700009B400FEFDCF0E94DC038091D8008F7C6E
:1016800080618093D8008091E000807F8093E000AB
:101690008091E1008E7E8093E1008DE08093E200F6
:1016A000559A209A80917D0490917E0497FD08C000
:1016B00061E00E947B0360E080917D040E944D0305
:1016C00081E0809378040AEF11E0F80180810E5FD9
:1016D0001F4F60E00E947B03F2E004301F07A9F770
:1016E00004E012E0F80180810E5F1F4F62E00E946B
:1016F0007B03F2E006311F07A9F78FEF9FEF90936E
:1017000001048093000430E020E0C90169E070E04A
:101710000E94F20D10E1C12ED12C7601F0E0E0E044
:1017200045E0489F8001499F100D11240B531C4F29
:10173000CF0165E070E00E94F20DD801A80FB91F3B
:101740008C91811105C050E1C50ED51EE51EF11C1E
:101750003196E930F10561F78091790490917A042E
:101760002817390708F03FC0270166247724A42DE5
:101770008D2C9E2CAF2CBB24182DBC2D40917F04AA
:10178000442361F0449E20011124A52D489D400171
:101790001124192D4C9DC0011124B92FE09185040D
:1017A000609180047091810480918204E81358C193
:1017B000C901880F991F820F931F860F971F4091B1
:1017C0008204480F592F511DFA01A08340918304D0
:1017D000480F592F511DFA01108340918404840F42
:1017E000911DFC01B0832F5F3F4F2C30310509F074
:1017F0008CCF8091800490918104892B09F467C07B
:101800000E94B703009186041091870420918804F8
:1018100030918904601B710B820B930B6C32714009
:101820008105910568F3F89480917B0490917C0484
:101830009A838983E0918004F0918104DF011196FD
:101840008081898790917704E0918A04F0918B04DC
:1018500080918C04992309F41FC19081982B98875B
:101860009081809589238F838F818C8388E08B83FF
:1018700058856F8149853B812C8189819A8150836C
:1018800047FD252F3A952083262F39F0441F00C0AD
:1018900000006083000000C0F2CF38E04D9160830B
:1018A0000000019761F7F0938B04E0938A04498765
:1018B0003B832C839A83898378940E94B703609337
:1018C00086047093870480938804909389043DEC88
:1018D000C32E31E0D32E25EC33E0388B2F8743E73E
:1018E00051E05A8B498B49E1242E41E0342E84E0AB
:1018F00092E09E878D87912C812CED85FE85F0816D
:10190000FA872D853E852E5F3F4F3E872D8761E00C
:101910008F2F0E947B0360E08A850E944D038FB762
:10192000F8944090590250905A0260905B02709077
:101930005C028FBF74014AEF51E05C8B4B8B10E06F
:1019400000E0EB89FC8921913191FC8BEB8B3C878A
:101950002B8762E08B850E947B032B853C85332798
:10196000F901E354FE4F8491F901E55FFD4FA49026
:10197000F901E85CFD4FB490BB2079F081110E9421
:101980000103EB2DF0E0EE0FFF1FE155FE4FA59197
:10199000B491EC91AE2281E009F480E0EF85F88902
:1019A000E00FF11F9081891709F4C5C08083F80109
:1019B000EE0FFF1F49895A89E40FF51FA080B180FF
:1019C000F601E00FF11F608181119FC08BE694E06A
:1019D0000E942306F701EF5EFC4F40825182628233
:1019E0007382F701E35AFD4F108211821282138233
:1019F00060E9B7FE91C060E08B850E947B030F5FBA
:101A00001F4F34E0E30EF11C0530110509F099CFAA
:101A100062E08A850E947B0361E08A850E944D0313
:101A200045E0C40ED11C8F8598890596988B8F87C9
:101A3000E989FA893A96FA8BE98BF4E18F0E911CC9
:101A40002AE0220E311C34EB8316910409F055CFA5
:101A500040E050E0452B09F456CE0E94000053CEE2
:101A6000C901880F991F880F991F860F971FCF2CC8
:101A7000DD24EE24FF24442349F050E04C9DB001C6
:101A80004D9D700D5C9D700D1124C72EAC014E0F45
:101A9000511DFA01C08293CE9081982B9887908136
:101AA000809589238F838F818E8388E08D835885ED
:101AB0006F8149853D812E8189819A81508347FDBF
:101AC000252F00C000C0208300C000C000C000C09F
:101AD00000C060830000262F3A9541F0441F0000AB
:101AE00000C000C000C000C000C0E8CF38E04D9189
:101AF00000C0608300C0019709F7F0938B04E09366
:101B00008A0449873D832E83D5CE8BE694E00E94DC
:101B1000E305B7FC70CF60E884EF93E00E947F029A
:101B20006A2D84EF93E00E947F026FE784EF93E0D9
:101B30000E947F0260CF81115ECFF801EE0FFF1F80
:101B4000E20DF31D80819181181619060CF053CF18
:101B5000F701EF5EFC4F80819181A281B381A301E7
:101B60009201281B390B4A0B5B0BDA01C901C397A1
:101B7000A105B10508F43FCF408251826282738291
:101B8000F701E35AFD4F80819181A281B3810196D3
:101B9000A11DB11D80839183A283B3830597A10505
:101BA000B10508F428CFF601E00FF11FB0806B2DCE
:101BB0008BE694E00E94E3056B2D8BE694E00E9497
:101BC000230619CF80918004909181040E94BC0E5D
:101BD00080917D0490917E0497FD03C060E00C9499
:101BE0007B03089597FB072E16F4009407D077FD2A
:101BF00009D00E940C0E07FC05D03EF4909581950B
:101C00009F4F0895709561957F4F0895EE0FFF1FC8
:101C10000590F491E02D0994AA1BBB1B51E107C06C
:101C2000AA1FBB1FA617B70710F0A61BB70B881F6C
:101C3000991F5A95A9F780959095BC01CD010895FB
:101C40000F931F93CF93DF938230910510F482E0BE
:101C500090E0E0918F04F091900430E020E0B0E05B
:101C6000A0E0309799F42115310509F44AC0281BEA
:101C7000390B24303105D8F58A819B8161157105B6
:101C800089F1FB0193838283FE0111C04081518160
:101C90000281138148175907E0F04817590799F452
:101CA000109761F012960C93129713961C9332962C
:101CB000CF01DF91CF911F910F91089500938F0471
:101CC00010939004F4CF2115310551F042175307BA
:101CD00038F0A901DB019A01BD01DF01F801C1CF94
:101CE000EF01F9CF9093900480938F04CDCFFE0144
:101CF000E20FF31F81939193225031093983288396
:101D0000D7CF20918D0430918E04232B41F4209164
:101D100015013091160130938E0420938D0420918B
:101D20001301309114012115310541F42DB73EB74F
:101D30004091170150911801241B350BE0918D043F
:101D4000F0918E04E217F307A0F42E1B3F0B281727
:101D5000390778F0AC014E5F5F4F2417350748F024
:101D60004E0F5F1F50938E0440938D048193919387
:101D70009FCFF0E0E0E09CCFCF93DF930097E9F0B6
:101D8000FC01329713821282A0918F04B0919004CB
:101D9000ED0130E020E01097A1F420813181820F25
:101DA000931F20918D0430918E042817390709F074
:101DB00061C0F0938E04E0938D04DF91CF9108957C
:101DC000EA01CE17DF07E8F54A815B819E014115E4
:101DD0005105B1F7E901FB83EA8349915991C40F99
:101DE000D51FEC17FD0761F4808191810296840F65
:101DF000951FE90199838883828193819B838A83DC
:101E0000F0E0E0E012968D919C9113970097B9F560
:101E10002D913C911197CD010296820F931F209135
:101E20008D0430918E042817390739F6309751F513
:101E30001092900410928F04B0938E04A0938D049E
:101E4000BCCFD383C28340815181840F951FC817B3
:101E5000D90761F44E5F5F4F88819981480F591F00
:101E6000518340838A819B8193838283211531052D
:101E700009F0B0CFF0939004E0938F049ECFFD0162
:101E8000DC01C0CF13821282D7CF11E0CDE2D1E0C6
:101E900004C0FE010E94060E2196CE32D107C9F77A
:041EA000F894FFCFE4
:101EA400FFFFFFFF00E100000000000000C180818F
:101EB4000000000000910480000100010001000105
:101EC4000001000100010001000100000001000107
:101ED40000000000000100010001000000010001F9
:101EE40000010001000100000000000100010000E9
:101EF40000010001000100010001000100010000D7
:101F040000000000000100010001000100000001C8
:101F140000000000000100020003000400050006A8
:101F24000007000800FFFF09000A00FFFFFFFF0B86
:101F3400000C000D00FFFF0E000F00100011001236
:101F440000FFFFFFFF13001400FEFF15001600172B
:101F54000018001900FFFFFFFF1A001B001C00FF00
:101F6400FFFFFFFFFFFFFFFFFFFFFFFFFF7A737815
:101F7400646376676268C36E6AC4C56D7132317713
:101F840033657235C6C77436C979377569392F2AEE
:101F94006F3070D82ED9DAD1D7D4020003000400F0
:101FA400050006000E00080009000A0010000700E2
:101FB4000F0012001300000000007F02DD04A002E5
:101FC4009502E702A502C30200000000F3046C05B9
:101FD40031051605000000008B06B705A206A10610
:00000001FF
